{
  "contractName": "ISO",
  "abi": [
    {
      "anonymous": false,
      "inputs": [
        {
          "indexed": true,
          "internalType": "address",
          "name": "previousOwner",
          "type": "address"
        },
        {
          "indexed": true,
          "internalType": "address",
          "name": "newOwner",
          "type": "address"
        }
      ],
      "name": "OwnershipTransferred",
      "type": "event"
    },
    {
      "anonymous": false,
      "inputs": [
        {
          "indexed": false,
          "internalType": "address",
          "name": "buyer",
          "type": "address"
        },
        {
          "indexed": false,
          "internalType": "uint256",
          "name": "amount",
          "type": "uint256"
        }
      ],
      "name": "Sold",
      "type": "event"
    },
    {
      "inputs": [],
      "name": "busdContract",
      "outputs": [
        {
          "internalType": "contract IERC20V2",
          "name": "",
          "type": "address"
        }
      ],
      "stateMutability": "view",
      "type": "function",
      "constant": true
    },
    {
      "inputs": [],
      "name": "owner",
      "outputs": [
        {
          "internalType": "address",
          "name": "",
          "type": "address"
        }
      ],
      "stateMutability": "view",
      "type": "function",
      "constant": true
    },
    {
      "inputs": [],
      "name": "priceBNB",
      "outputs": [
        {
          "internalType": "uint256",
          "name": "",
          "type": "uint256"
        }
      ],
      "stateMutability": "view",
      "type": "function",
      "constant": true
    },
    {
      "inputs": [],
      "name": "priceBUSD",
      "outputs": [
        {
          "internalType": "uint256",
          "name": "",
          "type": "uint256"
        }
      ],
      "stateMutability": "view",
      "type": "function",
      "constant": true
    },
    {
      "inputs": [],
      "name": "priceUSDT",
      "outputs": [
        {
          "internalType": "uint256",
          "name": "",
          "type": "uint256"
        }
      ],
      "stateMutability": "view",
      "type": "function",
      "constant": true
    },
    {
      "inputs": [],
      "name": "renounceOwnership",
      "outputs": [],
      "stateMutability": "nonpayable",
      "type": "function"
    },
    {
      "inputs": [],
      "name": "tokenContract",
      "outputs": [
        {
          "internalType": "contract IERC20V2",
          "name": "",
          "type": "address"
        }
      ],
      "stateMutability": "view",
      "type": "function",
      "constant": true
    },
    {
      "inputs": [],
      "name": "tokensSold",
      "outputs": [
        {
          "internalType": "uint256",
          "name": "",
          "type": "uint256"
        }
      ],
      "stateMutability": "view",
      "type": "function",
      "constant": true
    },
    {
      "inputs": [
        {
          "internalType": "address",
          "name": "newOwner",
          "type": "address"
        }
      ],
      "name": "transferOwnership",
      "outputs": [],
      "stateMutability": "nonpayable",
      "type": "function"
    },
    {
      "inputs": [],
      "name": "usdtContract",
      "outputs": [
        {
          "internalType": "contract IERC20V2",
          "name": "",
          "type": "address"
        }
      ],
      "stateMutability": "view",
      "type": "function",
      "constant": true
    },
    {
      "inputs": [
        {
          "internalType": "uint256",
          "name": "_price",
          "type": "uint256"
        }
      ],
      "name": "setPriceBNB",
      "outputs": [],
      "stateMutability": "nonpayable",
      "type": "function"
    },
    {
      "inputs": [
        {
          "internalType": "uint256",
          "name": "_price",
          "type": "uint256"
        }
      ],
      "name": "setPriceBUSD",
      "outputs": [],
      "stateMutability": "nonpayable",
      "type": "function"
    },
    {
      "inputs": [
        {
          "internalType": "uint256",
          "name": "_price",
          "type": "uint256"
        }
      ],
      "name": "setPriceUSDT",
      "outputs": [],
      "stateMutability": "nonpayable",
      "type": "function"
    },
    {
      "inputs": [
        {
          "internalType": "contract IERC20V2",
          "name": "_tokenContract",
          "type": "address"
        }
      ],
      "name": "setTokenContract",
      "outputs": [],
      "stateMutability": "nonpayable",
      "type": "function"
    },
    {
      "inputs": [
        {
          "internalType": "contract IERC20V2",
          "name": "_tokenContract",
          "type": "address"
        }
      ],
      "name": "setBUSDContract",
      "outputs": [],
      "stateMutability": "nonpayable",
      "type": "function"
    },
    {
      "inputs": [
        {
          "internalType": "contract IERC20V2",
          "name": "_tokenContract",
          "type": "address"
        }
      ],
      "name": "setUSDTContract",
      "outputs": [],
      "stateMutability": "nonpayable",
      "type": "function"
    },
    {
      "inputs": [
        {
          "internalType": "uint256",
          "name": "tokenCount",
          "type": "uint256"
        }
      ],
      "name": "buyTokensForBNB",
      "outputs": [],
      "stateMutability": "payable",
      "type": "function",
      "payable": true
    },
    {
      "inputs": [
        {
          "internalType": "uint256",
          "name": "tokenCount",
          "type": "uint256"
        }
      ],
      "name": "buyTokensForBUSD",
      "outputs": [],
      "stateMutability": "payable",
      "type": "function",
      "payable": true
    },
    {
      "inputs": [
        {
          "internalType": "uint256",
          "name": "tokenCount",
          "type": "uint256"
        }
      ],
      "name": "buyTokensForUSDT",
      "outputs": [],
      "stateMutability": "payable",
      "type": "function",
      "payable": true
    },
    {
      "inputs": [
        {
          "internalType": "uint256",
          "name": "_tokens",
          "type": "uint256"
        },
        {
          "internalType": "uint256",
          "name": "_price",
          "type": "uint256"
        },
        {
          "internalType": "uint256",
          "name": "_decimals",
          "type": "uint256"
        }
      ],
      "name": "getCost",
      "outputs": [
        {
          "internalType": "uint256",
          "name": "",
          "type": "uint256"
        }
      ],
      "stateMutability": "pure",
      "type": "function",
      "constant": true
    },
    {
      "inputs": [],
      "name": "exitTime",
      "outputs": [],
      "stateMutability": "nonpayable",
      "type": "function"
    }
  ],
  "bytecode": "0x608060405234801561001057600080fd5b5060006100216100c460201b60201c565b9050806000806101000a81548173ffffffffffffffffffffffffffffffffffffffff021916908373ffffffffffffffffffffffffffffffffffffffff1602179055508073ffffffffffffffffffffffffffffffffffffffff16600073ffffffffffffffffffffffffffffffffffffffff167f8be0079c531659141344cd1fd0a4f28419497f9722a3daafe3b4186f6b6457e060405160405180910390a3506100cc565b600033905090565b6123b6806100db6000396000f3fe60806040526004361061012a5760003560e01c806399db86d8116100ab578063c85a0f841161006f578063c85a0f8414610378578063cf9d101c146103a3578063d9154ca2146103ce578063eaac40f3146103ea578063f2fde38b14610413578063fe54309c1461043c5761012a565b806399db86d8146102c8578063a2fe9599146102df578063a8f70d0f14610308578063bbcd5bbe14610333578063bc0587151461035c5761012a565b806361150923116100f2578063611509231461020257806367822a1e1461022d57806368d9c9de14610249578063715018a6146102865780638da5cb5b1461029d5761012a565b8063135cd8561461012f5780634d8e122614610158578063518ab2a81461018357806352419147146101ae57806355a373d6146101d7575b600080fd5b34801561013b57600080fd5b5061015660048036038101906101519190611b3f565b610465565b005b34801561016457600080fd5b5061016d6104eb565b60405161017a9190611e78565b60405180910390f35b34801561018f57600080fd5b506101986104f1565b6040516101a59190611e78565b60405180910390f35b3480156101ba57600080fd5b506101d560048036038101906101d09190611b16565b6104f7565b005b3480156101e357600080fd5b506101ec6105b7565b6040516101f99190611d7d565b60405180910390f35b34801561020e57600080fd5b506102176105dd565b6040516102249190611d7d565b60405180910390f35b61024760048036038101906102429190611b3f565b610603565b005b34801561025557600080fd5b50610270600480360381019061026b9190611b91565b610938565b60405161027d9190611e78565b60405180910390f35b34801561029257600080fd5b5061029b6109bf565b005b3480156102a957600080fd5b506102b2610af9565b6040516102bf9190611d02565b60405180910390f35b3480156102d457600080fd5b506102dd610b22565b005b3480156102eb57600080fd5b5061030660048036038101906103019190611b3f565b61102f565b005b34801561031457600080fd5b5061031d6110b5565b60405161032a9190611e78565b60405180910390f35b34801561033f57600080fd5b5061035a60048036038101906103559190611b16565b6110bb565b005b61037660048036038101906103719190611b3f565b61117b565b005b34801561038457600080fd5b5061038d611403565b60405161039a9190611e78565b60405180910390f35b3480156103af57600080fd5b506103b8611409565b6040516103c59190611d7d565b60405180910390f35b6103e860048036038101906103e39190611b3f565b61142f565b005b3480156103f657600080fd5b50610411600480360381019061040c9190611b16565b611764565b005b34801561041f57600080fd5b5061043a60048036038101906104359190611ac4565b611824565b005b34801561044857600080fd5b50610463600480360381019061045e9190611b3f565b6119cd565b005b61046d611a53565b73ffffffffffffffffffffffffffffffffffffffff1661048b610af9565b73ffffffffffffffffffffffffffffffffffffffff16146104e1576040517f08c379a00000000000000000000000000000000000000000000000000000000081526004016104d890611e18565b60405180910390fd5b8060058190555050565b60055481565b60075481565b6104ff611a53565b73ffffffffffffffffffffffffffffffffffffffff1661051d610af9565b73ffffffffffffffffffffffffffffffffffffffff1614610573576040517f08c379a000000000000000000000000000000000000000000000000000000000815260040161056a90611e18565b60405180910390fd5b80600260006101000a81548173ffffffffffffffffffffffffffffffffffffffff021916908373ffffffffffffffffffffffffffffffffffffffff16021790555050565b600160009054906101000a900473ffffffffffffffffffffffffffffffffffffffff1681565b600360009054906101000a900473ffffffffffffffffffffffffffffffffffffffff1681565b8080600160009054906101000a900473ffffffffffffffffffffffffffffffffffffffff1673ffffffffffffffffffffffffffffffffffffffff166370a08231306040518263ffffffff1660e01b81526004016106609190611d02565b60206040518083038186803b15801561067857600080fd5b505afa15801561068c573d6000803e3d6000fd5b505050506040513d601f19601f820116820180604052508101906106b09190611b68565b10156106f1576040517f08c379a00000000000000000000000000000000000000000000000000000000081526004016106e890611dd8565b60405180910390fd5b6000610701836006546012610938565b9050600360009054906101000a900473ffffffffffffffffffffffffffffffffffffffff1673ffffffffffffffffffffffffffffffffffffffff166323b872dd3330846040518463ffffffff1660e01b815260040161076293929190611d1d565b602060405180830381600087803b15801561077c57600080fd5b505af1158015610790573d6000803e3d6000fd5b505050506040513d601f19601f820116820180604052508101906107b49190611aed565b6107f3576040517f08c379a00000000000000000000000000000000000000000000000000000000081526004016107ea90611e58565b60405180910390fd5b7fae92ab4b6f8f401ead768d3273e6bb937a13e39827d19c6376e8fd4512a05d9a3384604051610824929190611d54565b60405180910390a1826007600082825461083e9190611ea4565b92505081905550600160009054906101000a900473ffffffffffffffffffffffffffffffffffffffff1673ffffffffffffffffffffffffffffffffffffffff1663a9059cbb33856040518363ffffffff1660e01b81526004016108a2929190611d54565b602060405180830381600087803b1580156108bc57600080fd5b505af11580156108d0573d6000803e3d6000fd5b505050506040513d601f19601f820116820180604052508101906108f49190611aed565b610933576040517f08c379a000000000000000000000000000000000000000000000000000000000815260040161092a90611db8565b60405180910390fd5b505050565b60008084141561094b57600090506109b8565b60008385610959919061209c565b90508484826109689190611efa565b1461099c577f4e487b7100000000000000000000000000000000000000000000000000000000600052600160045260246000fd5b82600a6109a99190611f7e565b816109b49190611efa565b9150505b9392505050565b6109c7611a53565b73ffffffffffffffffffffffffffffffffffffffff166109e5610af9565b73ffffffffffffffffffffffffffffffffffffffff1614610a3b576040517f08c379a0000000000000000000000000000000000000000000000000000000008152600401610a3290611e18565b60405180910390fd5b600073ffffffffffffffffffffffffffffffffffffffff1660008054906101000a900473ffffffffffffffffffffffffffffffffffffffff1673ffffffffffffffffffffffffffffffffffffffff167f8be0079c531659141344cd1fd0a4f28419497f9722a3daafe3b4186f6b6457e060405160405180910390a360008060006101000a81548173ffffffffffffffffffffffffffffffffffffffff021916908373ffffffffffffffffffffffffffffffffffffffff160217905550565b60008060009054906101000a900473ffffffffffffffffffffffffffffffffffffffff16905090565b610b2a611a53565b73ffffffffffffffffffffffffffffffffffffffff16610b48610af9565b73ffffffffffffffffffffffffffffffffffffffff1614610b9e576040517f08c379a0000000000000000000000000000000000000000000000000000000008152600401610b9590611e18565b60405180910390fd5b600160009054906101000a900473ffffffffffffffffffffffffffffffffffffffff1673ffffffffffffffffffffffffffffffffffffffff1663a9059cbb610be4610af9565b600160009054906101000a900473ffffffffffffffffffffffffffffffffffffffff1673ffffffffffffffffffffffffffffffffffffffff166370a08231306040518263ffffffff1660e01b8152600401610c3f9190611d02565b60206040518083038186803b158015610c5757600080fd5b505afa158015610c6b573d6000803e3d6000fd5b505050506040513d601f19601f82011682018060405250810190610c8f9190611b68565b6040518363ffffffff1660e01b8152600401610cac929190611d54565b602060405180830381600087803b158015610cc657600080fd5b505af1158015610cda573d6000803e3d6000fd5b505050506040513d601f19601f82011682018060405250810190610cfe9190611aed565b610d0757600080fd5b600260009054906101000a900473ffffffffffffffffffffffffffffffffffffffff1673ffffffffffffffffffffffffffffffffffffffff1663a9059cbb610d4d610af9565b600260009054906101000a900473ffffffffffffffffffffffffffffffffffffffff1673ffffffffffffffffffffffffffffffffffffffff166370a08231306040518263ffffffff1660e01b8152600401610da89190611d02565b60206040518083038186803b158015610dc057600080fd5b505afa158015610dd4573d6000803e3d6000fd5b505050506040513d601f19601f82011682018060405250810190610df89190611b68565b6040518363ffffffff1660e01b8152600401610e15929190611d54565b602060405180830381600087803b158015610e2f57600080fd5b505af1158015610e43573d6000803e3d6000fd5b505050506040513d601f19601f82011682018060405250810190610e679190611aed565b610e7057600080fd5b600360009054906101000a900473ffffffffffffffffffffffffffffffffffffffff1673ffffffffffffffffffffffffffffffffffffffff1663a9059cbb610eb6610af9565b600360009054906101000a900473ffffffffffffffffffffffffffffffffffffffff1673ffffffffffffffffffffffffffffffffffffffff166370a08231306040518263ffffffff1660e01b8152600401610f119190611d02565b60206040518083038186803b158015610f2957600080fd5b505afa158015610f3d573d6000803e3d6000fd5b505050506040513d601f19601f82011682018060405250810190610f619190611b68565b6040518363ffffffff1660e01b8152600401610f7e929190611d54565b602060405180830381600087803b158015610f9857600080fd5b505af1158015610fac573d6000803e3d6000fd5b505050506040513d601f19601f82011682018060405250810190610fd09190611aed565b610fd957600080fd5b6000610fe3610af9565b90508073ffffffffffffffffffffffffffffffffffffffff166108fc479081150290604051600060405180830381858888f1935050505015801561102b573d6000803e3d6000fd5b5050565b611037611a53565b73ffffffffffffffffffffffffffffffffffffffff16611055610af9565b73ffffffffffffffffffffffffffffffffffffffff16146110ab576040517f08c379a00000000000000000000000000000000000000000000000000000000081526004016110a290611e18565b60405180910390fd5b8060068190555050565b60045481565b6110c3611a53565b73ffffffffffffffffffffffffffffffffffffffff166110e1610af9565b73ffffffffffffffffffffffffffffffffffffffff1614611137576040517f08c379a000000000000000000000000000000000000000000000000000000000815260040161112e90611e18565b60405180910390fd5b80600160006101000a81548173ffffffffffffffffffffffffffffffffffffffff021916908373ffffffffffffffffffffffffffffffffffffffff16021790555050565b8080600160009054906101000a900473ffffffffffffffffffffffffffffffffffffffff1673ffffffffffffffffffffffffffffffffffffffff166370a08231306040518263ffffffff1660e01b81526004016111d89190611d02565b60206040518083038186803b1580156111f057600080fd5b505afa158015611204573d6000803e3d6000fd5b505050506040513d601f19601f820116820180604052508101906112289190611b68565b1015611269576040517f08c379a000000000000000000000000000000000000000000000000000000000815260040161126090611dd8565b60405180910390fd5b6000611279836004546012610938565b9050803410156112be576040517f08c379a00000000000000000000000000000000000000000000000000000000081526004016112b590611df8565b60405180910390fd5b7fae92ab4b6f8f401ead768d3273e6bb937a13e39827d19c6376e8fd4512a05d9a33846040516112ef929190611d54565b60405180910390a182600760008282546113099190611ea4565b92505081905550600160009054906101000a900473ffffffffffffffffffffffffffffffffffffffff1673ffffffffffffffffffffffffffffffffffffffff1663a9059cbb33856040518363ffffffff1660e01b815260040161136d929190611d54565b602060405180830381600087803b15801561138757600080fd5b505af115801561139b573d6000803e3d6000fd5b505050506040513d601f19601f820116820180604052508101906113bf9190611aed565b6113fe576040517f08c379a00000000000000000000000000000000000000000000000000000000081526004016113f590611db8565b60405180910390fd5b505050565b60065481565b600260009054906101000a900473ffffffffffffffffffffffffffffffffffffffff1681565b8080600160009054906101000a900473ffffffffffffffffffffffffffffffffffffffff1673ffffffffffffffffffffffffffffffffffffffff166370a08231306040518263ffffffff1660e01b815260040161148c9190611d02565b60206040518083038186803b1580156114a457600080fd5b505afa1580156114b8573d6000803e3d6000fd5b505050506040513d601f19601f820116820180604052508101906114dc9190611b68565b101561151d576040517f08c379a000000000000000000000000000000000000000000000000000000000815260040161151490611dd8565b60405180910390fd5b600061152d836005546012610938565b9050600260009054906101000a900473ffffffffffffffffffffffffffffffffffffffff1673ffffffffffffffffffffffffffffffffffffffff166323b872dd3330846040518463ffffffff1660e01b815260040161158e93929190611d1d565b602060405180830381600087803b1580156115a857600080fd5b505af11580156115bc573d6000803e3d6000fd5b505050506040513d601f19601f820116820180604052508101906115e09190611aed565b61161f576040517f08c379a000000000000000000000000000000000000000000000000000000000815260040161161690611e38565b60405180910390fd5b7fae92ab4b6f8f401ead768d3273e6bb937a13e39827d19c6376e8fd4512a05d9a3384604051611650929190611d54565b60405180910390a1826007600082825461166a9190611ea4565b92505081905550600160009054906101000a900473ffffffffffffffffffffffffffffffffffffffff1673ffffffffffffffffffffffffffffffffffffffff1663a9059cbb33856040518363ffffffff1660e01b81526004016116ce929190611d54565b602060405180830381600087803b1580156116e857600080fd5b505af11580156116fc573d6000803e3d6000fd5b505050506040513d601f19601f820116820180604052508101906117209190611aed565b61175f576040517f08c379a000000000000000000000000000000000000000000000000000000000815260040161175690611db8565b60405180910390fd5b505050565b61176c611a53565b73ffffffffffffffffffffffffffffffffffffffff1661178a610af9565b73ffffffffffffffffffffffffffffffffffffffff16146117e0576040517f08c379a00000000000000000000000000000000000000000000000000000000081526004016117d790611e18565b60405180910390fd5b80600360006101000a81548173ffffffffffffffffffffffffffffffffffffffff021916908373ffffffffffffffffffffffffffffffffffffffff16021790555050565b61182c611a53565b73ffffffffffffffffffffffffffffffffffffffff1661184a610af9565b73ffffffffffffffffffffffffffffffffffffffff16146118a0576040517f08c379a000000000000000000000000000000000000000000000000000000000815260040161189790611e18565b60405180910390fd5b600073ffffffffffffffffffffffffffffffffffffffff168173ffffffffffffffffffffffffffffffffffffffff161415611910576040517f08c379a000000000000000000000000000000000000000000000000000000000815260040161190790611d98565b60405180910390fd5b8073ffffffffffffffffffffffffffffffffffffffff1660008054906101000a900473ffffffffffffffffffffffffffffffffffffffff1673ffffffffffffffffffffffffffffffffffffffff167f8be0079c531659141344cd1fd0a4f28419497f9722a3daafe3b4186f6b6457e060405160405180910390a3806000806101000a81548173ffffffffffffffffffffffffffffffffffffffff021916908373ffffffffffffffffffffffffffffffffffffffff16021790555050565b6119d5611a53565b73ffffffffffffffffffffffffffffffffffffffff166119f3610af9565b73ffffffffffffffffffffffffffffffffffffffff1614611a49576040517f08c379a0000000000000000000000000000000000000000000000000000000008152600401611a4090611e18565b60405180910390fd5b8060048190555050565b600033905090565b600081359050611a6a81612324565b92915050565b600081519050611a7f8161233b565b92915050565b600081359050611a9481612352565b92915050565b600081359050611aa981612369565b92915050565b600081519050611abe81612369565b92915050565b600060208284031215611ad657600080fd5b6000611ae484828501611a5b565b91505092915050565b600060208284031215611aff57600080fd5b6000611b0d84828501611a70565b91505092915050565b600060208284031215611b2857600080fd5b6000611b3684828501611a85565b91505092915050565b600060208284031215611b5157600080fd5b6000611b5f84828501611a9a565b91505092915050565b600060208284031215611b7a57600080fd5b6000611b8884828501611aaf565b91505092915050565b600080600060608486031215611ba657600080fd5b6000611bb486828701611a9a565b9350506020611bc586828701611a9a565b9250506040611bd686828701611a9a565b9150509250925092565b611be9816120f6565b82525050565b611bf881612150565b82525050565b6000611c0b602683611e93565b9150611c16826121df565b604082019050919050565b6000611c2e601b83611e93565b9150611c398261222e565b602082019050919050565b6000611c51601083611e93565b9150611c5c82612257565b602082019050919050565b6000611c74600e83611e93565b9150611c7f82612280565b602082019050919050565b6000611c97602083611e93565b9150611ca2826122a9565b602082019050919050565b6000611cba601483611e93565b9150611cc5826122d2565b602082019050919050565b6000611cdd601483611e93565b9150611ce8826122fb565b602082019050919050565b611cfc81612146565b82525050565b6000602082019050611d176000830184611be0565b92915050565b6000606082019050611d326000830186611be0565b611d3f6020830185611be0565b611d4c6040830184611cf3565b949350505050565b6000604082019050611d696000830185611be0565b611d766020830184611cf3565b9392505050565b6000602082019050611d926000830184611bef565b92915050565b60006020820190508181036000830152611db181611bfe565b9050919050565b60006020820190508181036000830152611dd181611c21565b9050919050565b60006020820190508181036000830152611df181611c44565b9050919050565b60006020820190508181036000830152611e1181611c67565b9050919050565b60006020820190508181036000830152611e3181611c8a565b9050919050565b60006020820190508181036000830152611e5181611cad565b9050919050565b60006020820190508181036000830152611e7181611cd0565b9050919050565b6000602082019050611e8d6000830184611cf3565b92915050565b600082825260208201905092915050565b6000611eaf82612146565b9150611eba83612146565b9250827fffffffffffffffffffffffffffffffffffffffffffffffffffffffffffffffff03821115611eef57611eee612174565b5b828201905092915050565b6000611f0582612146565b9150611f1083612146565b925082611f2057611f1f6121a3565b5b828204905092915050565b6000808291508390505b6001851115611f7557808604811115611f5157611f50612174565b5b6001851615611f605780820291505b8081029050611f6e856121d2565b9450611f35565b94509492505050565b6000611f8982612146565b9150611f9483612146565b9250611fc17fffffffffffffffffffffffffffffffffffffffffffffffffffffffffffffffff8484611fc9565b905092915050565b600082611fd95760019050612095565b81611fe75760009050612095565b8160018114611ffd576002811461200757612036565b6001915050612095565b60ff84111561201957612018612174565b5b8360020a9150848211156120305761202f612174565b5b50612095565b5060208310610133831016604e8410600b841016171561206b5782820a90508381111561206657612065612174565b5b612095565b6120788484846001611f2b565b9250905081840481111561208f5761208e612174565b5b81810290505b9392505050565b60006120a782612146565b91506120b283612146565b9250817fffffffffffffffffffffffffffffffffffffffffffffffffffffffffffffffff04831182151516156120eb576120ea612174565b5b828202905092915050565b600061210182612126565b9050919050565b60008115159050919050565b600061211f826120f6565b9050919050565b600073ffffffffffffffffffffffffffffffffffffffff82169050919050565b6000819050919050565b600061215b82612162565b9050919050565b600061216d82612126565b9050919050565b7f4e487b7100000000000000000000000000000000000000000000000000000000600052601160045260246000fd5b7f4e487b7100000000000000000000000000000000000000000000000000000000600052601260045260246000fd5b60008160011c9050919050565b7f4f776e61626c653a206e6577206f776e657220697320746865207a65726f206160008201527f6464726573730000000000000000000000000000000000000000000000000000602082015250565b7f4661696c6564207472616e73666572207472616e73616374696f6e0000000000600082015250565b7f4e6f7420656e6f75676820746f6b656e00000000000000000000000000000000600082015250565b7f4e6f7420656e6f75676820424e42000000000000000000000000000000000000600082015250565b7f4f776e61626c653a2063616c6c6572206973206e6f7420746865206f776e6572600082015250565b7f4661696c6564207472616e736665722042555344000000000000000000000000600082015250565b7f4661696c6564207472616e736665722055534454000000000000000000000000600082015250565b61232d816120f6565b811461233857600080fd5b50565b61234481612108565b811461234f57600080fd5b50565b61235b81612114565b811461236657600080fd5b50565b61237281612146565b811461237d57600080fd5b5056fea26469706673582212209ba0f5237bc1a320065ed3cf5e4db537b77fa38a5d0ce224274a1b593d189f7064736f6c63430008010033",
  "immutableReferences": {},
  "source": "// SPDX-License-Identifier: MIT\npragma solidity >=0.6.0 <0.8.2;\n\nimport \"@openzeppelin/contracts/access/Ownable.sol\";\nimport \"./IERC20V2.sol\";\n\ncontract ISO is Ownable {\n    IERC20V2 public tokenContract;\n    IERC20V2 public busdContract;\n    IERC20V2 public usdtContract;\n    uint256 public priceBNB; // in wei\n    uint256 public priceBUSD; // in wei\n    uint256 public priceUSDT; // in wei\n    uint256 public tokensSold;\n\n    event Sold(address buyer, uint256 amount);\n\n    function setPriceBNB(uint256 _price) public onlyOwner {\n        priceBNB = _price;\n    }\n    function setPriceBUSD(uint256 _price) public onlyOwner {\n        priceBUSD = _price;\n    }\n    function setPriceUSDT(uint256 _price) public onlyOwner {\n        priceUSDT = _price;\n    }\n    function setTokenContract(IERC20V2 _tokenContract) public onlyOwner {\n        tokenContract = _tokenContract;\n    }\n    function setBUSDContract(IERC20V2 _tokenContract) public onlyOwner {\n        busdContract = _tokenContract;\n    }\n    function setUSDTContract(IERC20V2 _tokenContract) public onlyOwner {\n        usdtContract = _tokenContract;\n    }\n\n    modifier hasTokens(uint256 tokenCount) {\n\t\trequire(tokenContract.balanceOf(address(this)) >= tokenCount, 'Not enough token');\n\t\t_;\n\t}\n\n    function buyTokensForBNB(uint256 tokenCount) public payable hasTokens(tokenCount) {\n        uint256 cost = getCost(tokenCount, priceBNB, 18);\n        require(msg.value >= cost, 'Not enough BNB');\n\n        emit Sold(msg.sender, tokenCount);\n        tokensSold += tokenCount;\n\n        require(tokenContract.transfer(msg.sender, tokenCount), 'Failed transfer transaction');\n    }\n\n    function buyTokensForBUSD(uint256 tokenCount) public payable hasTokens(tokenCount) {\n        uint256 busdAmount = getCost(tokenCount, priceBUSD, 18);\n        require(busdContract.transferFrom(msg.sender, address(this), busdAmount), 'Failed transfer BUSD');\n\n        emit Sold(msg.sender, tokenCount);\n        tokensSold += tokenCount;\n\n        require(tokenContract.transfer(msg.sender, tokenCount), 'Failed transfer transaction');\n    }\n    \n    function buyTokensForUSDT(uint256 tokenCount) public payable hasTokens(tokenCount) {\n        uint256 usdtAmount = getCost(tokenCount, priceUSDT, 18);\n        require(usdtContract.transferFrom(msg.sender, address(this), usdtAmount), 'Failed transfer USDT');\n\n        emit Sold(msg.sender, tokenCount);\n        tokensSold += tokenCount;\n\n        require(tokenContract.transfer(msg.sender, tokenCount), 'Failed transfer transaction');\n    }\n\n    function getCost(uint256 _tokens, uint256 _price, uint256 _decimals) public pure returns (uint256) {\n        if (_tokens == 0) {\n            return 0;\n        } else {\n            uint256 c = _tokens * _price;\n            assert(c / _price == _tokens);\n            return c / 10 ** _decimals;\n        }\n    }\n\n    function exitTime() public onlyOwner {\n        require(tokenContract.transfer(owner(), tokenContract.balanceOf(address(this))));\n        require(busdContract.transfer(owner(), busdContract.balanceOf(address(this))));\n        require(usdtContract.transfer(owner(), usdtContract.balanceOf(address(this))));\n\n        address payable ownerWallet = payable(owner());\n        ownerWallet.transfer(address(this).balance);\n    }\n\n    /**\n     * @dev for testing\n     */\n    // function kill() public onlyOwner {\n\t// \taddress payable wallet = payable(owner());\n\t// \tselfdestruct(wallet);\n\t// }\n}",
  "sourcePath": "C:/Main/workspace/projects/scamCoin/contracts/ISO.sol",
  "compiler": {
    "name": "solc",
    "version": "0.8.1+commit.df193b15.Emscripten.clang"
  },
  "schemaVersion": "3.4.1",
  "updatedAt": "2021-06-30T20:06:06.785Z",
  "networkType": "ethereum",
  "devdoc": {
    "kind": "dev",
    "methods": {
      "owner()": {
        "details": "Returns the address of the current owner."
      },
      "renounceOwnership()": {
        "details": "Leaves the contract without owner. It will not be possible to call `onlyOwner` functions anymore. Can only be called by the current owner. NOTE: Renouncing ownership will leave the contract without an owner, thereby removing any functionality that is only available to the owner."
      },
      "transferOwnership(address)": {
        "details": "Transfers ownership of the contract to a new account (`newOwner`). Can only be called by the current owner."
      }
    },
    "version": 1
  },
  "userdoc": {
    "kind": "user",
    "methods": {},
    "version": 1
  }
}