{
  "contractName": "ScamCoin",
  "abi": [
    {
      "inputs": [],
      "stateMutability": "nonpayable",
      "type": "constructor"
    },
    {
      "anonymous": false,
      "inputs": [
        {
          "indexed": true,
          "internalType": "address",
          "name": "owner",
          "type": "address"
        },
        {
          "indexed": true,
          "internalType": "address",
          "name": "spender",
          "type": "address"
        },
        {
          "indexed": false,
          "internalType": "uint256",
          "name": "value",
          "type": "uint256"
        }
      ],
      "name": "Approval",
      "type": "event"
    },
    {
      "anonymous": false,
      "inputs": [
        {
          "indexed": true,
          "internalType": "address",
          "name": "previousOwner",
          "type": "address"
        },
        {
          "indexed": true,
          "internalType": "address",
          "name": "newOwner",
          "type": "address"
        }
      ],
      "name": "OwnershipTransferred",
      "type": "event"
    },
    {
      "anonymous": false,
      "inputs": [
        {
          "indexed": true,
          "internalType": "address",
          "name": "from",
          "type": "address"
        },
        {
          "indexed": true,
          "internalType": "address",
          "name": "to",
          "type": "address"
        },
        {
          "indexed": false,
          "internalType": "uint256",
          "name": "value",
          "type": "uint256"
        }
      ],
      "name": "Transfer",
      "type": "event"
    },
    {
      "inputs": [
        {
          "internalType": "address",
          "name": "owner",
          "type": "address"
        },
        {
          "internalType": "address",
          "name": "spender",
          "type": "address"
        }
      ],
      "name": "allowance",
      "outputs": [
        {
          "internalType": "uint256",
          "name": "",
          "type": "uint256"
        }
      ],
      "stateMutability": "view",
      "type": "function"
    },
    {
      "inputs": [
        {
          "internalType": "address",
          "name": "spender",
          "type": "address"
        },
        {
          "internalType": "uint256",
          "name": "amount",
          "type": "uint256"
        }
      ],
      "name": "approve",
      "outputs": [
        {
          "internalType": "bool",
          "name": "",
          "type": "bool"
        }
      ],
      "stateMutability": "nonpayable",
      "type": "function"
    },
    {
      "inputs": [
        {
          "internalType": "address",
          "name": "account",
          "type": "address"
        }
      ],
      "name": "balanceOf",
      "outputs": [
        {
          "internalType": "uint256",
          "name": "",
          "type": "uint256"
        }
      ],
      "stateMutability": "view",
      "type": "function"
    },
    {
      "inputs": [],
      "name": "decimals",
      "outputs": [
        {
          "internalType": "uint8",
          "name": "",
          "type": "uint8"
        }
      ],
      "stateMutability": "view",
      "type": "function"
    },
    {
      "inputs": [
        {
          "internalType": "address",
          "name": "spender",
          "type": "address"
        },
        {
          "internalType": "uint256",
          "name": "subtractedValue",
          "type": "uint256"
        }
      ],
      "name": "decreaseAllowance",
      "outputs": [
        {
          "internalType": "bool",
          "name": "",
          "type": "bool"
        }
      ],
      "stateMutability": "nonpayable",
      "type": "function"
    },
    {
      "inputs": [
        {
          "internalType": "address",
          "name": "spender",
          "type": "address"
        },
        {
          "internalType": "uint256",
          "name": "addedValue",
          "type": "uint256"
        }
      ],
      "name": "increaseAllowance",
      "outputs": [
        {
          "internalType": "bool",
          "name": "",
          "type": "bool"
        }
      ],
      "stateMutability": "nonpayable",
      "type": "function"
    },
    {
      "inputs": [],
      "name": "name",
      "outputs": [
        {
          "internalType": "string",
          "name": "",
          "type": "string"
        }
      ],
      "stateMutability": "view",
      "type": "function"
    },
    {
      "inputs": [],
      "name": "owner",
      "outputs": [
        {
          "internalType": "address",
          "name": "",
          "type": "address"
        }
      ],
      "stateMutability": "view",
      "type": "function"
    },
    {
      "inputs": [],
      "name": "renounceOwnership",
      "outputs": [],
      "stateMutability": "nonpayable",
      "type": "function"
    },
    {
      "inputs": [],
      "name": "symbol",
      "outputs": [
        {
          "internalType": "string",
          "name": "",
          "type": "string"
        }
      ],
      "stateMutability": "view",
      "type": "function"
    },
    {
      "inputs": [],
      "name": "totalSupply",
      "outputs": [
        {
          "internalType": "uint256",
          "name": "",
          "type": "uint256"
        }
      ],
      "stateMutability": "view",
      "type": "function"
    },
    {
      "inputs": [
        {
          "internalType": "address",
          "name": "recipient",
          "type": "address"
        },
        {
          "internalType": "uint256",
          "name": "amount",
          "type": "uint256"
        }
      ],
      "name": "transfer",
      "outputs": [
        {
          "internalType": "bool",
          "name": "",
          "type": "bool"
        }
      ],
      "stateMutability": "nonpayable",
      "type": "function"
    },
    {
      "inputs": [
        {
          "internalType": "address",
          "name": "sender",
          "type": "address"
        },
        {
          "internalType": "address",
          "name": "recipient",
          "type": "address"
        },
        {
          "internalType": "uint256",
          "name": "amount",
          "type": "uint256"
        }
      ],
      "name": "transferFrom",
      "outputs": [
        {
          "internalType": "bool",
          "name": "",
          "type": "bool"
        }
      ],
      "stateMutability": "nonpayable",
      "type": "function"
    },
    {
      "inputs": [
        {
          "internalType": "address",
          "name": "newOwner",
          "type": "address"
        }
      ],
      "name": "transferOwnership",
      "outputs": [],
      "stateMutability": "nonpayable",
      "type": "function"
    },
    {
      "inputs": [],
      "name": "maxSupply",
      "outputs": [
        {
          "internalType": "uint256",
          "name": "",
          "type": "uint256"
        }
      ],
      "stateMutability": "view",
      "type": "function"
    },
    {
      "inputs": [
        {
          "internalType": "address",
          "name": "_to",
          "type": "address"
        },
        {
          "internalType": "uint256",
          "name": "_amount",
          "type": "uint256"
        }
      ],
      "name": "mint",
      "outputs": [],
      "stateMutability": "nonpayable",
      "type": "function"
    },
    {
      "inputs": [
        {
          "internalType": "address",
          "name": "_to",
          "type": "address"
        },
        {
          "internalType": "uint256",
          "name": "_amount",
          "type": "uint256"
        }
      ],
      "name": "burn",
      "outputs": [],
      "stateMutability": "nonpayable",
      "type": "function"
    }
  ],
  "bytecode": "0x608060405262000014620001f860201b60201c565b600a62000022919062000829565b62010f2c62000032919062000966565b6006553480156200004257600080fd5b506040518060400160405280600881526020017f5363616d436f696e0000000000000000000000000000000000000000000000008152506040518060400160405280600581526020017f5343414d430000000000000000000000000000000000000000000000000000008152508160039080519060200190620000c79291906200056f565b508060049080519060200190620000e09291906200056f565b5050506000620000f56200020160201b60201c565b905080600560006101000a81548173ffffffffffffffffffffffffffffffffffffffff021916908373ffffffffffffffffffffffffffffffffffffffff1602179055508073ffffffffffffffffffffffffffffffffffffffff16600073ffffffffffffffffffffffffffffffffffffffff167f8be0079c531659141344cd1fd0a4f28419497f9722a3daafe3b4186f6b6457e060405160405180910390a350620001b533620001a96200020960201b60201c565b6200021360201b60201c565b620001f23360106064620001ce6200037860201b60201c565b620001da919062000796565b620001e6919062000966565b6200038260201b60201c565b62000bb0565b60006012905090565b600033905090565b6000600654905090565b600073ffffffffffffffffffffffffffffffffffffffff168273ffffffffffffffffffffffffffffffffffffffff16141562000286576040517f08c379a00000000000000000000000000000000000000000000000000000000081526004016200027d90620006e9565b60405180910390fd5b6200029a600083836200056a60201b60201c565b8060026000828254620002ae919062000739565b92505081905550806000808473ffffffffffffffffffffffffffffffffffffffff1673ffffffffffffffffffffffffffffffffffffffff168152602001908152602001600020600082825462000305919062000739565b925050819055508173ffffffffffffffffffffffffffffffffffffffff16600073ffffffffffffffffffffffffffffffffffffffff167fddf252ad1be2c89b69c2b068fc378daa952ba7f163c4a11628f55a4df523b3ef836040516200036c91906200070b565b60405180910390a35050565b6000600254905090565b600073ffffffffffffffffffffffffffffffffffffffff168273ffffffffffffffffffffffffffffffffffffffff161415620003f5576040517f08c379a0000000000000000000000000000000000000000000000000000000008152600401620003ec90620006c7565b60405180910390fd5b62000409826000836200056a60201b60201c565b60008060008473ffffffffffffffffffffffffffffffffffffffff1673ffffffffffffffffffffffffffffffffffffffff1681526020019081526020016000205490508181101562000492576040517f08c379a00000000000000000000000000000000000000000000000000000000081526004016200048990620006a5565b60405180910390fd5b8181620004a09190620009c7565b6000808573ffffffffffffffffffffffffffffffffffffffff1673ffffffffffffffffffffffffffffffffffffffff168152602001908152602001600020819055508160026000828254620004f69190620009c7565b92505081905550600073ffffffffffffffffffffffffffffffffffffffff168373ffffffffffffffffffffffffffffffffffffffff167fddf252ad1be2c89b69c2b068fc378daa952ba7f163c4a11628f55a4df523b3ef846040516200055d91906200070b565b60405180910390a3505050565b505050565b8280546200057d9062000a19565b90600052602060002090601f016020900481019282620005a15760008555620005ed565b82601f10620005bc57805160ff1916838001178555620005ed565b82800160010185558215620005ed579182015b82811115620005ec578251825591602001919060010190620005cf565b5b509050620005fc919062000600565b5090565b5b808211156200061b57600081600090555060010162000601565b5090565b60006200062e60228362000728565b91506200063b8262000ae9565b604082019050919050565b60006200065560218362000728565b9150620006628262000b38565b604082019050919050565b60006200067c601f8362000728565b9150620006898262000b87565b602082019050919050565b6200069f8162000a02565b82525050565b60006020820190508181036000830152620006c0816200061f565b9050919050565b60006020820190508181036000830152620006e28162000646565b9050919050565b6000602082019050818103600083015262000704816200066d565b9050919050565b600060208201905062000722600083018462000694565b92915050565b600082825260208201905092915050565b6000620007468262000a02565b9150620007538362000a02565b9250827fffffffffffffffffffffffffffffffffffffffffffffffffffffffffffffffff038211156200078b576200078a62000a4f565b5b828201905092915050565b6000620007a38262000a02565b9150620007b08362000a02565b925082620007c357620007c262000a7e565b5b828204905092915050565b6000808291508390505b60018511156200082057808604811115620007f857620007f762000a4f565b5b6001851615620008085780820291505b8081029050620008188562000adc565b9450620007d8565b94509492505050565b6000620008368262000a02565b9150620008438362000a0c565b9250620008727fffffffffffffffffffffffffffffffffffffffffffffffffffffffffffffffff84846200087a565b905092915050565b6000826200088c57600190506200095f565b816200089c57600090506200095f565b8160018114620008b55760028114620008c057620008f6565b60019150506200095f565b60ff841115620008d557620008d462000a4f565b5b8360020a915084821115620008ef57620008ee62000a4f565b5b506200095f565b5060208310610133831016604e8410600b8410161715620009305782820a9050838111156200092a576200092962000a4f565b5b6200095f565b6200093f8484846001620007ce565b9250905081840481111562000959576200095862000a4f565b5b81810290505b9392505050565b6000620009738262000a02565b9150620009808362000a02565b9250817fffffffffffffffffffffffffffffffffffffffffffffffffffffffffffffffff0483118215151615620009bc57620009bb62000a4f565b5b828202905092915050565b6000620009d48262000a02565b9150620009e18362000a02565b925082821015620009f757620009f662000a4f565b5b828203905092915050565b6000819050919050565b600060ff82169050919050565b6000600282049050600182168062000a3257607f821691505b6020821081141562000a495762000a4862000aad565b5b50919050565b7f4e487b7100000000000000000000000000000000000000000000000000000000600052601160045260246000fd5b7f4e487b7100000000000000000000000000000000000000000000000000000000600052601260045260246000fd5b7f4e487b7100000000000000000000000000000000000000000000000000000000600052602260045260246000fd5b60008160011c9050919050565b7f45524332303a206275726e20616d6f756e7420657863656564732062616c616e60008201527f6365000000000000000000000000000000000000000000000000000000000000602082015250565b7f45524332303a206275726e2066726f6d20746865207a65726f2061646472657360008201527f7300000000000000000000000000000000000000000000000000000000000000602082015250565b7f45524332303a206d696e7420746f20746865207a65726f206164647265737300600082015250565b611ee18062000bc06000396000f3fe608060405234801561001057600080fd5b506004361061010b5760003560e01c8063715018a6116100a2578063a457c2d711610071578063a457c2d7146102a8578063a9059cbb146102d8578063d5abeb0114610308578063dd62ed3e14610326578063f2fde38b146103565761010b565b8063715018a6146102465780638da5cb5b1461025057806395d89b411461026e5780639dc29fac1461028c5761010b565b8063313ce567116100de578063313ce567146101ac57806339509351146101ca57806340c10f19146101fa57806370a08231146102165761010b565b806306fdde0314610110578063095ea7b31461012e57806318160ddd1461015e57806323b872dd1461017c575b600080fd5b610118610372565b604051610125919061176e565b60405180910390f35b610148600480360381019061014391906114e3565b610404565b6040516101559190611753565b60405180910390f35b610166610422565b6040516101739190611910565b60405180910390f35b61019660048036038101906101919190611494565b61042c565b6040516101a39190611753565b60405180910390f35b6101b461052d565b6040516101c1919061192b565b60405180910390f35b6101e460048036038101906101df91906114e3565b610536565b6040516101f19190611753565b60405180910390f35b610214600480360381019061020f91906114e3565b6105e2565b005b610230600480360381019061022b919061142f565b61066c565b60405161023d9190611910565b60405180910390f35b61024e6106b4565b005b6102586107f1565b6040516102659190611738565b60405180910390f35b61027661081b565b604051610283919061176e565b60405180910390f35b6102a660048036038101906102a191906114e3565b6108ad565b005b6102c260048036038101906102bd91906114e3565b610937565b6040516102cf9190611753565b60405180910390f35b6102f260048036038101906102ed91906114e3565b610a2b565b6040516102ff9190611753565b60405180910390f35b610310610a49565b60405161031d9190611910565b60405180910390f35b610340600480360381019061033b9190611458565b610a53565b60405161034d9190611910565b60405180910390f35b610370600480360381019061036b919061142f565b610ada565b005b60606003805461038190611a74565b80601f01602080910402602001604051908101604052809291908181526020018280546103ad90611a74565b80156103fa5780601f106103cf576101008083540402835291602001916103fa565b820191906000526020600020905b8154815290600101906020018083116103dd57829003601f168201915b5050505050905090565b6000610418610411610c86565b8484610c8e565b6001905092915050565b6000600254905090565b6000610439848484610e59565b6000600160008673ffffffffffffffffffffffffffffffffffffffff1673ffffffffffffffffffffffffffffffffffffffff1681526020019081526020016000206000610484610c86565b73ffffffffffffffffffffffffffffffffffffffff1673ffffffffffffffffffffffffffffffffffffffff16815260200190815260200160002054905082811015610504576040517f08c379a00000000000000000000000000000000000000000000000000000000081526004016104fb90611830565b60405180910390fd5b61052185610510610c86565b858461051c91906119b8565b610c8e565b60019150509392505050565b60006012905090565b60006105d8610543610c86565b848460016000610551610c86565b73ffffffffffffffffffffffffffffffffffffffff1673ffffffffffffffffffffffffffffffffffffffff16815260200190815260200160002060008873ffffffffffffffffffffffffffffffffffffffff1673ffffffffffffffffffffffffffffffffffffffff168152602001908152602001600020546105d39190611962565b610c8e565b6001905092915050565b6105ea610c86565b73ffffffffffffffffffffffffffffffffffffffff166106086107f1565b73ffffffffffffffffffffffffffffffffffffffff161461065e576040517f08c379a000000000000000000000000000000000000000000000000000000000815260040161065590611850565b60405180910390fd5b61066882826110d8565b5050565b60008060008373ffffffffffffffffffffffffffffffffffffffff1673ffffffffffffffffffffffffffffffffffffffff168152602001908152602001600020549050919050565b6106bc610c86565b73ffffffffffffffffffffffffffffffffffffffff166106da6107f1565b73ffffffffffffffffffffffffffffffffffffffff1614610730576040517f08c379a000000000000000000000000000000000000000000000000000000000815260040161072790611850565b60405180910390fd5b600073ffffffffffffffffffffffffffffffffffffffff16600560009054906101000a900473ffffffffffffffffffffffffffffffffffffffff1673ffffffffffffffffffffffffffffffffffffffff167f8be0079c531659141344cd1fd0a4f28419497f9722a3daafe3b4186f6b6457e060405160405180910390a36000600560006101000a81548173ffffffffffffffffffffffffffffffffffffffff021916908373ffffffffffffffffffffffffffffffffffffffff160217905550565b6000600560009054906101000a900473ffffffffffffffffffffffffffffffffffffffff16905090565b60606004805461082a90611a74565b80601f016020809104026020016040519081016040528092919081815260200182805461085690611a74565b80156108a35780601f10610878576101008083540402835291602001916108a3565b820191906000526020600020905b81548152906001019060200180831161088657829003601f168201915b5050505050905090565b6108b5610c86565b73ffffffffffffffffffffffffffffffffffffffff166108d36107f1565b73ffffffffffffffffffffffffffffffffffffffff1614610929576040517f08c379a000000000000000000000000000000000000000000000000000000000815260040161092090611850565b60405180910390fd5b610933828261122c565b5050565b60008060016000610946610c86565b73ffffffffffffffffffffffffffffffffffffffff1673ffffffffffffffffffffffffffffffffffffffff16815260200190815260200160002060008573ffffffffffffffffffffffffffffffffffffffff1673ffffffffffffffffffffffffffffffffffffffff16815260200190815260200160002054905082811015610a03576040517f08c379a00000000000000000000000000000000000000000000000000000000081526004016109fa906118d0565b60405180910390fd5b610a20610a0e610c86565b858584610a1b91906119b8565b610c8e565b600191505092915050565b6000610a3f610a38610c86565b8484610e59565b6001905092915050565b6000600654905090565b6000600160008473ffffffffffffffffffffffffffffffffffffffff1673ffffffffffffffffffffffffffffffffffffffff16815260200190815260200160002060008373ffffffffffffffffffffffffffffffffffffffff1673ffffffffffffffffffffffffffffffffffffffff16815260200190815260200160002054905092915050565b610ae2610c86565b73ffffffffffffffffffffffffffffffffffffffff16610b006107f1565b73ffffffffffffffffffffffffffffffffffffffff1614610b56576040517f08c379a0000000000000000000000000000000000000000000000000000000008152600401610b4d90611850565b60405180910390fd5b600073ffffffffffffffffffffffffffffffffffffffff168173ffffffffffffffffffffffffffffffffffffffff161415610bc6576040517f08c379a0000000000000000000000000000000000000000000000000000000008152600401610bbd906117d0565b60405180910390fd5b8073ffffffffffffffffffffffffffffffffffffffff16600560009054906101000a900473ffffffffffffffffffffffffffffffffffffffff1673ffffffffffffffffffffffffffffffffffffffff167f8be0079c531659141344cd1fd0a4f28419497f9722a3daafe3b4186f6b6457e060405160405180910390a380600560006101000a81548173ffffffffffffffffffffffffffffffffffffffff021916908373ffffffffffffffffffffffffffffffffffffffff16021790555050565b600033905090565b600073ffffffffffffffffffffffffffffffffffffffff168373ffffffffffffffffffffffffffffffffffffffff161415610cfe576040517f08c379a0000000000000000000000000000000000000000000000000000000008152600401610cf5906118b0565b60405180910390fd5b600073ffffffffffffffffffffffffffffffffffffffff168273ffffffffffffffffffffffffffffffffffffffff161415610d6e576040517f08c379a0000000000000000000000000000000000000000000000000000000008152600401610d65906117f0565b60405180910390fd5b80600160008573ffffffffffffffffffffffffffffffffffffffff1673ffffffffffffffffffffffffffffffffffffffff16815260200190815260200160002060008473ffffffffffffffffffffffffffffffffffffffff1673ffffffffffffffffffffffffffffffffffffffff168152602001908152602001600020819055508173ffffffffffffffffffffffffffffffffffffffff168373ffffffffffffffffffffffffffffffffffffffff167f8c5be1e5ebec7d5bd14f71427d1e84f3dd0314c0f7b2291e5b200ac8c7c3b92583604051610e4c9190611910565b60405180910390a3505050565b600073ffffffffffffffffffffffffffffffffffffffff168373ffffffffffffffffffffffffffffffffffffffff161415610ec9576040517f08c379a0000000000000000000000000000000000000000000000000000000008152600401610ec090611890565b60405180910390fd5b600073ffffffffffffffffffffffffffffffffffffffff168273ffffffffffffffffffffffffffffffffffffffff161415610f39576040517f08c379a0000000000000000000000000000000000000000000000000000000008152600401610f3090611790565b60405180910390fd5b610f44838383611400565b60008060008573ffffffffffffffffffffffffffffffffffffffff1673ffffffffffffffffffffffffffffffffffffffff16815260200190815260200160002054905081811015610fca576040517f08c379a0000000000000000000000000000000000000000000000000000000008152600401610fc190611810565b60405180910390fd5b8181610fd691906119b8565b6000808673ffffffffffffffffffffffffffffffffffffffff1673ffffffffffffffffffffffffffffffffffffffff16815260200190815260200160002081905550816000808573ffffffffffffffffffffffffffffffffffffffff1673ffffffffffffffffffffffffffffffffffffffff16815260200190815260200160002060008282546110669190611962565b925050819055508273ffffffffffffffffffffffffffffffffffffffff168473ffffffffffffffffffffffffffffffffffffffff167fddf252ad1be2c89b69c2b068fc378daa952ba7f163c4a11628f55a4df523b3ef846040516110ca9190611910565b60405180910390a350505050565b600073ffffffffffffffffffffffffffffffffffffffff168273ffffffffffffffffffffffffffffffffffffffff161415611148576040517f08c379a000000000000000000000000000000000000000000000000000000000815260040161113f906118f0565b60405180910390fd5b61115460008383611400565b80600260008282546111669190611962565b92505081905550806000808473ffffffffffffffffffffffffffffffffffffffff1673ffffffffffffffffffffffffffffffffffffffff16815260200190815260200160002060008282546111bb9190611962565b925050819055508173ffffffffffffffffffffffffffffffffffffffff16600073ffffffffffffffffffffffffffffffffffffffff167fddf252ad1be2c89b69c2b068fc378daa952ba7f163c4a11628f55a4df523b3ef836040516112209190611910565b60405180910390a35050565b600073ffffffffffffffffffffffffffffffffffffffff168273ffffffffffffffffffffffffffffffffffffffff16141561129c576040517f08c379a000000000000000000000000000000000000000000000000000000000815260040161129390611870565b60405180910390fd5b6112a882600083611400565b60008060008473ffffffffffffffffffffffffffffffffffffffff1673ffffffffffffffffffffffffffffffffffffffff1681526020019081526020016000205490508181101561132e576040517f08c379a0000000000000000000000000000000000000000000000000000000008152600401611325906117b0565b60405180910390fd5b818161133a91906119b8565b6000808573ffffffffffffffffffffffffffffffffffffffff1673ffffffffffffffffffffffffffffffffffffffff16815260200190815260200160002081905550816002600082825461138e91906119b8565b92505081905550600073ffffffffffffffffffffffffffffffffffffffff168373ffffffffffffffffffffffffffffffffffffffff167fddf252ad1be2c89b69c2b068fc378daa952ba7f163c4a11628f55a4df523b3ef846040516113f39190611910565b60405180910390a3505050565b505050565b60008135905061141481611e7d565b92915050565b60008135905061142981611e94565b92915050565b60006020828403121561144157600080fd5b600061144f84828501611405565b91505092915050565b6000806040838503121561146b57600080fd5b600061147985828601611405565b925050602061148a85828601611405565b9150509250929050565b6000806000606084860312156114a957600080fd5b60006114b786828701611405565b93505060206114c886828701611405565b92505060406114d98682870161141a565b9150509250925092565b600080604083850312156114f657600080fd5b600061150485828601611405565b92505060206115158582860161141a565b9150509250929050565b611528816119ec565b82525050565b611537816119fe565b82525050565b600061154882611946565b6115528185611951565b9350611562818560208601611a41565b61156b81611b04565b840191505092915050565b6000611583602383611951565b915061158e82611b15565b604082019050919050565b60006115a6602283611951565b91506115b182611b64565b604082019050919050565b60006115c9602683611951565b91506115d482611bb3565b604082019050919050565b60006115ec602283611951565b91506115f782611c02565b604082019050919050565b600061160f602683611951565b915061161a82611c51565b604082019050919050565b6000611632602883611951565b915061163d82611ca0565b604082019050919050565b6000611655602083611951565b915061166082611cef565b602082019050919050565b6000611678602183611951565b915061168382611d18565b604082019050919050565b600061169b602583611951565b91506116a682611d67565b604082019050919050565b60006116be602483611951565b91506116c982611db6565b604082019050919050565b60006116e1602583611951565b91506116ec82611e05565b604082019050919050565b6000611704601f83611951565b915061170f82611e54565b602082019050919050565b61172381611a2a565b82525050565b61173281611a34565b82525050565b600060208201905061174d600083018461151f565b92915050565b6000602082019050611768600083018461152e565b92915050565b60006020820190508181036000830152611788818461153d565b905092915050565b600060208201905081810360008301526117a981611576565b9050919050565b600060208201905081810360008301526117c981611599565b9050919050565b600060208201905081810360008301526117e9816115bc565b9050919050565b60006020820190508181036000830152611809816115df565b9050919050565b6000602082019050818103600083015261182981611602565b9050919050565b6000602082019050818103600083015261184981611625565b9050919050565b6000602082019050818103600083015261186981611648565b9050919050565b600060208201905081810360008301526118898161166b565b9050919050565b600060208201905081810360008301526118a98161168e565b9050919050565b600060208201905081810360008301526118c9816116b1565b9050919050565b600060208201905081810360008301526118e9816116d4565b9050919050565b60006020820190508181036000830152611909816116f7565b9050919050565b6000602082019050611925600083018461171a565b92915050565b60006020820190506119406000830184611729565b92915050565b600081519050919050565b600082825260208201905092915050565b600061196d82611a2a565b915061197883611a2a565b9250827fffffffffffffffffffffffffffffffffffffffffffffffffffffffffffffffff038211156119ad576119ac611aa6565b5b828201905092915050565b60006119c382611a2a565b91506119ce83611a2a565b9250828210156119e1576119e0611aa6565b5b828203905092915050565b60006119f782611a0a565b9050919050565b60008115159050919050565b600073ffffffffffffffffffffffffffffffffffffffff82169050919050565b6000819050919050565b600060ff82169050919050565b60005b83811015611a5f578082015181840152602081019050611a44565b83811115611a6e576000848401525b50505050565b60006002820490506001821680611a8c57607f821691505b60208210811415611aa057611a9f611ad5565b5b50919050565b7f4e487b7100000000000000000000000000000000000000000000000000000000600052601160045260246000fd5b7f4e487b7100000000000000000000000000000000000000000000000000000000600052602260045260246000fd5b6000601f19601f8301169050919050565b7f45524332303a207472616e7366657220746f20746865207a65726f206164647260008201527f6573730000000000000000000000000000000000000000000000000000000000602082015250565b7f45524332303a206275726e20616d6f756e7420657863656564732062616c616e60008201527f6365000000000000000000000000000000000000000000000000000000000000602082015250565b7f4f776e61626c653a206e6577206f776e657220697320746865207a65726f206160008201527f6464726573730000000000000000000000000000000000000000000000000000602082015250565b7f45524332303a20617070726f766520746f20746865207a65726f20616464726560008201527f7373000000000000000000000000000000000000000000000000000000000000602082015250565b7f45524332303a207472616e7366657220616d6f756e742065786365656473206260008201527f616c616e63650000000000000000000000000000000000000000000000000000602082015250565b7f45524332303a207472616e7366657220616d6f756e742065786365656473206160008201527f6c6c6f77616e6365000000000000000000000000000000000000000000000000602082015250565b7f4f776e61626c653a2063616c6c6572206973206e6f7420746865206f776e6572600082015250565b7f45524332303a206275726e2066726f6d20746865207a65726f2061646472657360008201527f7300000000000000000000000000000000000000000000000000000000000000602082015250565b7f45524332303a207472616e736665722066726f6d20746865207a65726f20616460008201527f6472657373000000000000000000000000000000000000000000000000000000602082015250565b7f45524332303a20617070726f76652066726f6d20746865207a65726f2061646460008201527f7265737300000000000000000000000000000000000000000000000000000000602082015250565b7f45524332303a2064656372656173656420616c6c6f77616e63652062656c6f7760008201527f207a65726f000000000000000000000000000000000000000000000000000000602082015250565b7f45524332303a206d696e7420746f20746865207a65726f206164647265737300600082015250565b611e86816119ec565b8114611e9157600080fd5b50565b611e9d81611a2a565b8114611ea857600080fd5b5056fea2646970667358221220665ef3ff246899fce23f819a340a6f668d9c8ed3ea40094540043b2aa262188e64736f6c63430008010033",
  "immutableReferences": {},
  "source": "// SPDX-License-Identifier: MIT\n\npragma solidity >=0.6.0 <0.8.2;\n\nimport \"@openzeppelin/contracts/access/Ownable.sol\";\nimport \"@openzeppelin/contracts/token/ERC20/ERC20.sol\";\n\ncontract ScamCoin is ERC20, Ownable {\n    uint256 _maxSupply = 69420 * 10 ** decimals();\n\n    /**\n     * @dev Init token\n     */\n    constructor() ERC20(\"ScamCoin\", \"SCAMC\") {\n        _mint(msg.sender, maxSupply());\n\n        _burn(msg.sender, totalSupply() / 100 * 16);\n    }\n\n    function maxSupply() public view returns(uint256) {\n        return _maxSupply;\n    }\n\n    /**\n     * @dev Expands the total\n     */\n    function mint(address _to, uint256 _amount) public onlyOwner {\n        _mint(_to, _amount);\n    }\n\n    function burn(address _to, uint256 _amount) public onlyOwner {\n        _burn(_to, _amount);\n    }\n}",
  "sourcePath": "C:/Main/workspace/projects/scamCoin/contracts/ScamCoin.sol",
  "compiler": {
    "name": "solc",
    "version": "0.8.1+commit.df193b15.Emscripten.clang"
  },
  "schemaVersion": "3.4.1",
  "updatedAt": "2021-06-28T14:56:32.521Z",
  "devdoc": {
    "kind": "dev",
    "methods": {
      "allowance(address,address)": {
        "details": "See {IERC20-allowance}."
      },
      "approve(address,uint256)": {
        "details": "See {IERC20-approve}. Requirements: - `spender` cannot be the zero address."
      },
      "balanceOf(address)": {
        "details": "See {IERC20-balanceOf}."
      },
      "constructor": {
        "details": "Init token"
      },
      "decimals()": {
        "details": "Returns the number of decimals used to get its user representation. For example, if `decimals` equals `2`, a balance of `505` tokens should be displayed to a user as `5,05` (`505 / 10 ** 2`). Tokens usually opt for a value of 18, imitating the relationship between Ether and Wei. This is the value {ERC20} uses, unless this function is overridden; NOTE: This information is only used for _display_ purposes: it in no way affects any of the arithmetic of the contract, including {IERC20-balanceOf} and {IERC20-transfer}."
      },
      "decreaseAllowance(address,uint256)": {
        "details": "Atomically decreases the allowance granted to `spender` by the caller. This is an alternative to {approve} that can be used as a mitigation for problems described in {IERC20-approve}. Emits an {Approval} event indicating the updated allowance. Requirements: - `spender` cannot be the zero address. - `spender` must have allowance for the caller of at least `subtractedValue`."
      },
      "increaseAllowance(address,uint256)": {
        "details": "Atomically increases the allowance granted to `spender` by the caller. This is an alternative to {approve} that can be used as a mitigation for problems described in {IERC20-approve}. Emits an {Approval} event indicating the updated allowance. Requirements: - `spender` cannot be the zero address."
      },
      "mint(address,uint256)": {
        "details": "Expands the total"
      },
      "name()": {
        "details": "Returns the name of the token."
      },
      "owner()": {
        "details": "Returns the address of the current owner."
      },
      "renounceOwnership()": {
        "details": "Leaves the contract without owner. It will not be possible to call `onlyOwner` functions anymore. Can only be called by the current owner. NOTE: Renouncing ownership will leave the contract without an owner, thereby removing any functionality that is only available to the owner."
      },
      "symbol()": {
        "details": "Returns the symbol of the token, usually a shorter version of the name."
      },
      "totalSupply()": {
        "details": "See {IERC20-totalSupply}."
      },
      "transfer(address,uint256)": {
        "details": "See {IERC20-transfer}. Requirements: - `recipient` cannot be the zero address. - the caller must have a balance of at least `amount`."
      },
      "transferFrom(address,address,uint256)": {
        "details": "See {IERC20-transferFrom}. Emits an {Approval} event indicating the updated allowance. This is not required by the EIP. See the note at the beginning of {ERC20}. Requirements: - `sender` and `recipient` cannot be the zero address. - `sender` must have a balance of at least `amount`. - the caller must have allowance for ``sender``'s tokens of at least `amount`."
      },
      "transferOwnership(address)": {
        "details": "Transfers ownership of the contract to a new account (`newOwner`). Can only be called by the current owner."
      }
    },
    "version": 1
  },
  "userdoc": {
    "kind": "user",
    "methods": {},
    "version": 1
  }
}