{
  "contractName": "StakingToken",
  "abi": [
    {
      "inputs": [],
      "stateMutability": "nonpayable",
      "type": "constructor"
    },
    {
      "anonymous": false,
      "inputs": [
        {
          "indexed": true,
          "internalType": "address",
          "name": "owner",
          "type": "address"
        },
        {
          "indexed": true,
          "internalType": "address",
          "name": "spender",
          "type": "address"
        },
        {
          "indexed": false,
          "internalType": "uint256",
          "name": "value",
          "type": "uint256"
        }
      ],
      "name": "Approval",
      "type": "event"
    },
    {
      "anonymous": false,
      "inputs": [
        {
          "indexed": true,
          "internalType": "address",
          "name": "previousOwner",
          "type": "address"
        },
        {
          "indexed": true,
          "internalType": "address",
          "name": "newOwner",
          "type": "address"
        }
      ],
      "name": "OwnershipTransferred",
      "type": "event"
    },
    {
      "anonymous": false,
      "inputs": [
        {
          "indexed": true,
          "internalType": "address",
          "name": "from",
          "type": "address"
        },
        {
          "indexed": true,
          "internalType": "address",
          "name": "to",
          "type": "address"
        },
        {
          "indexed": false,
          "internalType": "uint256",
          "name": "value",
          "type": "uint256"
        }
      ],
      "name": "Transfer",
      "type": "event"
    },
    {
      "inputs": [
        {
          "internalType": "address",
          "name": "owner",
          "type": "address"
        },
        {
          "internalType": "address",
          "name": "spender",
          "type": "address"
        }
      ],
      "name": "allowance",
      "outputs": [
        {
          "internalType": "uint256",
          "name": "",
          "type": "uint256"
        }
      ],
      "stateMutability": "view",
      "type": "function"
    },
    {
      "inputs": [
        {
          "internalType": "address",
          "name": "spender",
          "type": "address"
        },
        {
          "internalType": "uint256",
          "name": "amount",
          "type": "uint256"
        }
      ],
      "name": "approve",
      "outputs": [
        {
          "internalType": "bool",
          "name": "",
          "type": "bool"
        }
      ],
      "stateMutability": "nonpayable",
      "type": "function"
    },
    {
      "inputs": [
        {
          "internalType": "address",
          "name": "account",
          "type": "address"
        }
      ],
      "name": "balanceOf",
      "outputs": [
        {
          "internalType": "uint256",
          "name": "",
          "type": "uint256"
        }
      ],
      "stateMutability": "view",
      "type": "function"
    },
    {
      "inputs": [
        {
          "internalType": "address",
          "name": "_to",
          "type": "address"
        },
        {
          "internalType": "uint256",
          "name": "_amount",
          "type": "uint256"
        }
      ],
      "name": "burn",
      "outputs": [],
      "stateMutability": "nonpayable",
      "type": "function"
    },
    {
      "inputs": [],
      "name": "decimals",
      "outputs": [
        {
          "internalType": "uint8",
          "name": "",
          "type": "uint8"
        }
      ],
      "stateMutability": "view",
      "type": "function"
    },
    {
      "inputs": [
        {
          "internalType": "address",
          "name": "spender",
          "type": "address"
        },
        {
          "internalType": "uint256",
          "name": "subtractedValue",
          "type": "uint256"
        }
      ],
      "name": "decreaseAllowance",
      "outputs": [
        {
          "internalType": "bool",
          "name": "",
          "type": "bool"
        }
      ],
      "stateMutability": "nonpayable",
      "type": "function"
    },
    {
      "inputs": [
        {
          "internalType": "address",
          "name": "spender",
          "type": "address"
        },
        {
          "internalType": "uint256",
          "name": "addedValue",
          "type": "uint256"
        }
      ],
      "name": "increaseAllowance",
      "outputs": [
        {
          "internalType": "bool",
          "name": "",
          "type": "bool"
        }
      ],
      "stateMutability": "nonpayable",
      "type": "function"
    },
    {
      "inputs": [],
      "name": "maxSupply",
      "outputs": [
        {
          "internalType": "uint256",
          "name": "",
          "type": "uint256"
        }
      ],
      "stateMutability": "view",
      "type": "function"
    },
    {
      "inputs": [
        {
          "internalType": "address",
          "name": "_to",
          "type": "address"
        },
        {
          "internalType": "uint256",
          "name": "_amount",
          "type": "uint256"
        }
      ],
      "name": "mint",
      "outputs": [],
      "stateMutability": "nonpayable",
      "type": "function"
    },
    {
      "inputs": [],
      "name": "name",
      "outputs": [
        {
          "internalType": "string",
          "name": "",
          "type": "string"
        }
      ],
      "stateMutability": "view",
      "type": "function"
    },
    {
      "inputs": [],
      "name": "owner",
      "outputs": [
        {
          "internalType": "address",
          "name": "",
          "type": "address"
        }
      ],
      "stateMutability": "view",
      "type": "function"
    },
    {
      "inputs": [],
      "name": "renounceOwnership",
      "outputs": [],
      "stateMutability": "nonpayable",
      "type": "function"
    },
    {
      "inputs": [],
      "name": "symbol",
      "outputs": [
        {
          "internalType": "string",
          "name": "",
          "type": "string"
        }
      ],
      "stateMutability": "view",
      "type": "function"
    },
    {
      "inputs": [],
      "name": "totalSupply",
      "outputs": [
        {
          "internalType": "uint256",
          "name": "",
          "type": "uint256"
        }
      ],
      "stateMutability": "view",
      "type": "function"
    },
    {
      "inputs": [
        {
          "internalType": "address",
          "name": "recipient",
          "type": "address"
        },
        {
          "internalType": "uint256",
          "name": "amount",
          "type": "uint256"
        }
      ],
      "name": "transfer",
      "outputs": [
        {
          "internalType": "bool",
          "name": "",
          "type": "bool"
        }
      ],
      "stateMutability": "nonpayable",
      "type": "function"
    },
    {
      "inputs": [
        {
          "internalType": "address",
          "name": "sender",
          "type": "address"
        },
        {
          "internalType": "address",
          "name": "recipient",
          "type": "address"
        },
        {
          "internalType": "uint256",
          "name": "amount",
          "type": "uint256"
        }
      ],
      "name": "transferFrom",
      "outputs": [
        {
          "internalType": "bool",
          "name": "",
          "type": "bool"
        }
      ],
      "stateMutability": "nonpayable",
      "type": "function"
    },
    {
      "inputs": [
        {
          "internalType": "address",
          "name": "newOwner",
          "type": "address"
        }
      ],
      "name": "transferOwnership",
      "outputs": [],
      "stateMutability": "nonpayable",
      "type": "function"
    },
    {
      "inputs": [
        {
          "internalType": "uint256",
          "name": "_stake",
          "type": "uint256"
        }
      ],
      "name": "createStake",
      "outputs": [],
      "stateMutability": "nonpayable",
      "type": "function"
    },
    {
      "inputs": [
        {
          "internalType": "uint256",
          "name": "_stake",
          "type": "uint256"
        }
      ],
      "name": "removeStake",
      "outputs": [],
      "stateMutability": "nonpayable",
      "type": "function"
    },
    {
      "inputs": [
        {
          "internalType": "address",
          "name": "_stakeholder",
          "type": "address"
        }
      ],
      "name": "stakeOf",
      "outputs": [
        {
          "internalType": "uint256",
          "name": "",
          "type": "uint256"
        }
      ],
      "stateMutability": "view",
      "type": "function"
    },
    {
      "inputs": [],
      "name": "totalStakes",
      "outputs": [
        {
          "internalType": "uint256",
          "name": "",
          "type": "uint256"
        }
      ],
      "stateMutability": "view",
      "type": "function"
    },
    {
      "inputs": [
        {
          "internalType": "address",
          "name": "_address",
          "type": "address"
        }
      ],
      "name": "isStakeholder",
      "outputs": [
        {
          "internalType": "bool",
          "name": "",
          "type": "bool"
        },
        {
          "internalType": "uint256",
          "name": "",
          "type": "uint256"
        }
      ],
      "stateMutability": "view",
      "type": "function"
    },
    {
      "inputs": [
        {
          "internalType": "address",
          "name": "_stakeholder",
          "type": "address"
        }
      ],
      "name": "addStakeholder",
      "outputs": [],
      "stateMutability": "nonpayable",
      "type": "function"
    },
    {
      "inputs": [
        {
          "internalType": "address",
          "name": "_stakeholder",
          "type": "address"
        }
      ],
      "name": "removeStakeholder",
      "outputs": [],
      "stateMutability": "nonpayable",
      "type": "function"
    },
    {
      "inputs": [
        {
          "internalType": "address",
          "name": "_stakeholder",
          "type": "address"
        }
      ],
      "name": "rewardOf",
      "outputs": [
        {
          "internalType": "uint256",
          "name": "",
          "type": "uint256"
        }
      ],
      "stateMutability": "view",
      "type": "function"
    },
    {
      "inputs": [],
      "name": "totalRewards",
      "outputs": [
        {
          "internalType": "uint256",
          "name": "",
          "type": "uint256"
        }
      ],
      "stateMutability": "view",
      "type": "function"
    },
    {
      "inputs": [
        {
          "internalType": "address",
          "name": "_stakeholder",
          "type": "address"
        }
      ],
      "name": "calculateReward",
      "outputs": [
        {
          "internalType": "uint256",
          "name": "",
          "type": "uint256"
        }
      ],
      "stateMutability": "view",
      "type": "function"
    },
    {
      "inputs": [],
      "name": "koefReward",
      "outputs": [
        {
          "internalType": "uint256",
          "name": "",
          "type": "uint256"
        }
      ],
      "stateMutability": "view",
      "type": "function"
    },
    {
      "inputs": [],
      "name": "distributeRewards",
      "outputs": [],
      "stateMutability": "nonpayable",
      "type": "function"
    },
    {
      "inputs": [],
      "name": "withdrawReward",
      "outputs": [],
      "stateMutability": "nonpayable",
      "type": "function"
    }
  ],
  "bytecode": "0x608060405262000014620001f860201b60201c565b600a62000022919062000829565b62010f2c62000032919062000966565b6006553480156200004257600080fd5b506040518060400160405280600881526020017f5363616d436f696e0000000000000000000000000000000000000000000000008152506040518060400160405280600581526020017f5343414d430000000000000000000000000000000000000000000000000000008152508160039080519060200190620000c79291906200056f565b508060049080519060200190620000e09291906200056f565b5050506000620000f56200020160201b60201c565b905080600560006101000a81548173ffffffffffffffffffffffffffffffffffffffff021916908373ffffffffffffffffffffffffffffffffffffffff1602179055508073ffffffffffffffffffffffffffffffffffffffff16600073ffffffffffffffffffffffffffffffffffffffff167f8be0079c531659141344cd1fd0a4f28419497f9722a3daafe3b4186f6b6457e060405160405180910390a350620001b533620001a96200020960201b60201c565b6200021360201b60201c565b620001f23360106064620001ce6200037860201b60201c565b620001da919062000796565b620001e6919062000966565b6200038260201b60201c565b62000bb0565b60006012905090565b600033905090565b6000600654905090565b600073ffffffffffffffffffffffffffffffffffffffff168273ffffffffffffffffffffffffffffffffffffffff16141562000286576040517f08c379a00000000000000000000000000000000000000000000000000000000081526004016200027d90620006e9565b60405180910390fd5b6200029a600083836200056a60201b60201c565b8060026000828254620002ae919062000739565b92505081905550806000808473ffffffffffffffffffffffffffffffffffffffff1673ffffffffffffffffffffffffffffffffffffffff168152602001908152602001600020600082825462000305919062000739565b925050819055508173ffffffffffffffffffffffffffffffffffffffff16600073ffffffffffffffffffffffffffffffffffffffff167fddf252ad1be2c89b69c2b068fc378daa952ba7f163c4a11628f55a4df523b3ef836040516200036c91906200070b565b60405180910390a35050565b6000600254905090565b600073ffffffffffffffffffffffffffffffffffffffff168273ffffffffffffffffffffffffffffffffffffffff161415620003f5576040517f08c379a0000000000000000000000000000000000000000000000000000000008152600401620003ec90620006c7565b60405180910390fd5b62000409826000836200056a60201b60201c565b60008060008473ffffffffffffffffffffffffffffffffffffffff1673ffffffffffffffffffffffffffffffffffffffff1681526020019081526020016000205490508181101562000492576040517f08c379a00000000000000000000000000000000000000000000000000000000081526004016200048990620006a5565b60405180910390fd5b8181620004a09190620009c7565b6000808573ffffffffffffffffffffffffffffffffffffffff1673ffffffffffffffffffffffffffffffffffffffff168152602001908152602001600020819055508160026000828254620004f69190620009c7565b92505081905550600073ffffffffffffffffffffffffffffffffffffffff168373ffffffffffffffffffffffffffffffffffffffff167fddf252ad1be2c89b69c2b068fc378daa952ba7f163c4a11628f55a4df523b3ef846040516200055d91906200070b565b60405180910390a3505050565b505050565b8280546200057d9062000a19565b90600052602060002090601f016020900481019282620005a15760008555620005ed565b82601f10620005bc57805160ff1916838001178555620005ed565b82800160010185558215620005ed579182015b82811115620005ec578251825591602001919060010190620005cf565b5b509050620005fc919062000600565b5090565b5b808211156200061b57600081600090555060010162000601565b5090565b60006200062e60228362000728565b91506200063b8262000ae9565b604082019050919050565b60006200065560218362000728565b9150620006628262000b38565b604082019050919050565b60006200067c601f8362000728565b9150620006898262000b87565b602082019050919050565b6200069f8162000a02565b82525050565b60006020820190508181036000830152620006c0816200061f565b9050919050565b60006020820190508181036000830152620006e28162000646565b9050919050565b6000602082019050818103600083015262000704816200066d565b9050919050565b600060208201905062000722600083018462000694565b92915050565b600082825260208201905092915050565b6000620007468262000a02565b9150620007538362000a02565b9250827fffffffffffffffffffffffffffffffffffffffffffffffffffffffffffffffff038211156200078b576200078a62000a4f565b5b828201905092915050565b6000620007a38262000a02565b9150620007b08362000a02565b925082620007c357620007c262000a7e565b5b828204905092915050565b6000808291508390505b60018511156200082057808604811115620007f857620007f762000a4f565b5b6001851615620008085780820291505b8081029050620008188562000adc565b9450620007d8565b94509492505050565b6000620008368262000a02565b9150620008438362000a0c565b9250620008727fffffffffffffffffffffffffffffffffffffffffffffffffffffffffffffffff84846200087a565b905092915050565b6000826200088c57600190506200095f565b816200089c57600090506200095f565b8160018114620008b55760028114620008c057620008f6565b60019150506200095f565b60ff841115620008d557620008d462000a4f565b5b8360020a915084821115620008ef57620008ee62000a4f565b5b506200095f565b5060208310610133831016604e8410600b8410161715620009305782820a9050838111156200092a576200092962000a4f565b5b6200095f565b6200093f8484846001620007ce565b9250905081840481111562000959576200095862000a4f565b5b81810290505b9392505050565b6000620009738262000a02565b9150620009808362000a02565b9250817fffffffffffffffffffffffffffffffffffffffffffffffffffffffffffffffff0483118215151615620009bc57620009bb62000a4f565b5b828202905092915050565b6000620009d48262000a02565b9150620009e18362000a02565b925082821015620009f757620009f662000a4f565b5b828203905092915050565b6000819050919050565b600060ff82169050919050565b6000600282049050600182168062000a3257607f821691505b6020821081141562000a495762000a4862000aad565b5b50919050565b7f4e487b7100000000000000000000000000000000000000000000000000000000600052601160045260246000fd5b7f4e487b7100000000000000000000000000000000000000000000000000000000600052601260045260246000fd5b7f4e487b7100000000000000000000000000000000000000000000000000000000600052602260045260246000fd5b60008160011c9050919050565b7f45524332303a206275726e20616d6f756e7420657863656564732062616c616e60008201527f6365000000000000000000000000000000000000000000000000000000000000602082015250565b7f45524332303a206275726e2066726f6d20746865207a65726f2061646472657360008201527f7300000000000000000000000000000000000000000000000000000000000000602082015250565b7f45524332303a206d696e7420746f20746865207a65726f206164647265737300600082015250565b61306f8062000bc06000396000f3fe608060405234801561001057600080fd5b50600436106101da5760003560e01c80638da5cb5b11610104578063bf9befb1116100a2578063dd62ed3e11610071578063dd62ed3e14610547578063e5c42fd114610577578063ef037b9014610593578063f2fde38b146105c4576101da565b8063bf9befb1146104d1578063c885bc58146104ef578063d5abeb01146104f9578063d82e396214610517576101da565b80639dc29fac116100de5780639dc29fac14610439578063a457c2d714610455578063a9059cbb14610485578063bcb0c2d7146104b5576101da565b80638da5cb5b146103e1578063939624ab146103ff57806395d89b411461041b576101da565b8063313ce5671161017c5780636f4a2cd01161014b5780636f4a2cd01461037f57806370a0823114610389578063715018a6146103b95780638d0dbf63146103c3576101da565b8063313ce567146102e5578063395093511461030357806340c10f1914610333578063426233601461034f576101da565b806318160ddd116101b857806318160ddd1461024b5780631bf6ddae146102695780631d62ebd91461028557806323b872dd146102b5576101da565b806306fdde03146101df578063095ea7b3146101fd5780630e15561a1461022d575b600080fd5b6101e76105e0565b6040516101f491906126f8565b60405180910390f35b6102176004803603810190610212919061238f565b610672565b60405161022491906126b4565b60405180910390f35b610235610690565b604051610242919061291a565b60405180910390f35b61025361077b565b604051610260919061291a565b60405180910390f35b610283600480360381019061027e91906123cb565b610785565b005b61029f600480360381019061029a91906122db565b610879565b6040516102ac919061291a565b60405180910390f35b6102cf60048036038101906102ca9190612340565b6108c2565b6040516102dc91906126b4565b60405180910390f35b6102ed6109c3565b6040516102fa9190612935565b60405180910390f35b61031d6004803603810190610318919061238f565b6109cc565b60405161032a91906126b4565b60405180910390f35b61034d6004803603810190610348919061238f565b610a78565b005b610369600480360381019061036491906122db565b610b02565b604051610376919061291a565b60405180910390f35b610387610b4b565b005b6103a3600480360381019061039e91906122db565b610d09565b6040516103b0919061291a565b60405180910390f35b6103c1610d51565b005b6103cb610e8e565b6040516103d8919061291a565b60405180910390f35b6103e9611084565b6040516103f69190612699565b60405180910390f35b610419600480360381019061041491906123cb565b6110ae565b005b6104236111a2565b60405161043091906126f8565b60405180910390f35b610453600480360381019061044e919061238f565b611234565b005b61046f600480360381019061046a919061238f565b6112be565b60405161047c91906126b4565b60405180910390f35b61049f600480360381019061049a919061238f565b6113b2565b6040516104ac91906126b4565b60405180910390f35b6104cf60048036038101906104ca91906122db565b6113d0565b005b6104d9611551565b6040516104e6919061291a565b60405180910390f35b6104f761163c565b005b6105016116d2565b60405161050e919061291a565b60405180910390f35b610531600480360381019061052c91906122db565b6116dc565b60405161053e919061291a565b60405180910390f35b610561600480360381019061055c9190612304565b6116fb565b60405161056e919061291a565b60405180910390f35b610591600480360381019061058c91906122db565b611782565b005b6105ad60048036038101906105a891906122db565b6117fd565b6040516105bb9291906126cf565b60405180910390f35b6105de60048036038101906105d991906122db565b6118d7565b005b6060600380546105ef90612b09565b80601f016020809104026020016040519081016040528092919081815260200182805461061b90612b09565b80156106685780601f1061063d57610100808354040283529160200191610668565b820191906000526020600020905b81548152906001019060200180831161064b57829003601f168201915b5050505050905090565b600061068661067f611a83565b8484611a8b565b6001905092915050565b6000806000905060005b6007805490508110156107735761075d60096000600784815481106106e8577f4e487b7100000000000000000000000000000000000000000000000000000000600052603260045260246000fd5b9060005260206000200160009054906101000a900473ffffffffffffffffffffffffffffffffffffffff1673ffffffffffffffffffffffffffffffffffffffff1673ffffffffffffffffffffffffffffffffffffffff1681526020019081526020016000205483611c5690919063ffffffff16565b915060018161076c919061296c565b905061069a565b508091505090565b6000600254905090565b61078f3382611c6c565b6000600860003373ffffffffffffffffffffffffffffffffffffffff1673ffffffffffffffffffffffffffffffffffffffff1681526020019081526020016000205414156107e1576107e033611782565b5b61083381600860003373ffffffffffffffffffffffffffffffffffffffff1673ffffffffffffffffffffffffffffffffffffffff16815260200190815260200160002054611c5690919063ffffffff16565b600860003373ffffffffffffffffffffffffffffffffffffffff1673ffffffffffffffffffffffffffffffffffffffff1681526020019081526020016000208190555050565b6000600960008373ffffffffffffffffffffffffffffffffffffffff1673ffffffffffffffffffffffffffffffffffffffff168152602001908152602001600020549050919050565b60006108cf848484611e40565b6000600160008673ffffffffffffffffffffffffffffffffffffffff1673ffffffffffffffffffffffffffffffffffffffff168152602001908152602001600020600061091a611a83565b73ffffffffffffffffffffffffffffffffffffffff1673ffffffffffffffffffffffffffffffffffffffff1681526020019081526020016000205490508281101561099a576040517f08c379a00000000000000000000000000000000000000000000000000000000081526004016109919061283a565b60405180910390fd5b6109b7856109a6611a83565b85846109b29190612a4d565b611a8b565b60019150509392505050565b60006012905090565b6000610a6e6109d9611a83565b8484600160006109e7611a83565b73ffffffffffffffffffffffffffffffffffffffff1673ffffffffffffffffffffffffffffffffffffffff16815260200190815260200160002060008873ffffffffffffffffffffffffffffffffffffffff1673ffffffffffffffffffffffffffffffffffffffff16815260200190815260200160002054610a69919061296c565b611a8b565b6001905092915050565b610a80611a83565b73ffffffffffffffffffffffffffffffffffffffff16610a9e611084565b73ffffffffffffffffffffffffffffffffffffffff1614610af4576040517f08c379a0000000000000000000000000000000000000000000000000000000008152600401610aeb9061285a565b60405180910390fd5b610afe82826120bf565b5050565b6000600860008373ffffffffffffffffffffffffffffffffffffffff1673ffffffffffffffffffffffffffffffffffffffff168152602001908152602001600020549050919050565b610b53611a83565b73ffffffffffffffffffffffffffffffffffffffff16610b71611084565b73ffffffffffffffffffffffffffffffffffffffff1614610bc7576040517f08c379a0000000000000000000000000000000000000000000000000000000008152600401610bbe9061285a565b60405180910390fd5b6000610bd1610e8e565b905060005b600780549050811015610d0557600060078281548110610c1f577f4e487b7100000000000000000000000000000000000000000000000000000000600052603260045260246000fd5b9060005260206000200160009054906101000a900473ffffffffffffffffffffffffffffffffffffffff1690506000610c588285612213565b9050610cac81600960008573ffffffffffffffffffffffffffffffffffffffff1673ffffffffffffffffffffffffffffffffffffffff16815260200190815260200160002054611c5690919063ffffffff16565b600960008473ffffffffffffffffffffffffffffffffffffffff1673ffffffffffffffffffffffffffffffffffffffff168152602001908152602001600020819055505050600181610cfe919061296c565b9050610bd6565b5050565b60008060008373ffffffffffffffffffffffffffffffffffffffff1673ffffffffffffffffffffffffffffffffffffffff168152602001908152602001600020549050919050565b610d59611a83565b73ffffffffffffffffffffffffffffffffffffffff16610d77611084565b73ffffffffffffffffffffffffffffffffffffffff1614610dcd576040517f08c379a0000000000000000000000000000000000000000000000000000000008152600401610dc49061285a565b60405180910390fd5b600073ffffffffffffffffffffffffffffffffffffffff16600560009054906101000a900473ffffffffffffffffffffffffffffffffffffffff1673ffffffffffffffffffffffffffffffffffffffff167f8be0079c531659141344cd1fd0a4f28419497f9722a3daafe3b4186f6b6457e060405160405180910390a36000600560006101000a81548173ffffffffffffffffffffffffffffffffffffffff021916908373ffffffffffffffffffffffffffffffffffffffff160217905550565b600080610e99611551565b905060008111610ede576040517f08c379a0000000000000000000000000000000000000000000000000000000008152600401610ed5906127fa565b60405180910390fd5b6000610ee861077b565b9050610efd8282611c5690919063ffffffff16565b9050610f19610f0a610690565b82611c5690919063ffffffff16565b905060006001905081610f2a6116d2565b11610f6a576040517f08c379a0000000000000000000000000000000000000000000000000000000008152600401610f619061281a565b60405180910390fd5b600082610f756116d2565b610f7f9190612a4d565b905060008111610fc4576040517f08c379a0000000000000000000000000000000000000000000000000000000008152600401610fbb9061279a565b60405180910390fd5b60006006836064610fd591906129f3565b86610fe091906129c2565b610fea91906129f3565b905081811115611079575b60008111156110355760028361100b91906129f3565b925061102160028261228090919063ffffffff16565b90508082111561103057611035565b610ff5565b60008111611078576040517f08c379a000000000000000000000000000000000000000000000000000000000815260040161106f906127da565b60405180910390fd5b5b829550505050505090565b6000600560009054906101000a900473ffffffffffffffffffffffffffffffffffffffff16905090565b61110081600860003373ffffffffffffffffffffffffffffffffffffffff1673ffffffffffffffffffffffffffffffffffffffff1681526020019081526020016000205461229690919063ffffffff16565b600860003373ffffffffffffffffffffffffffffffffffffffff1673ffffffffffffffffffffffffffffffffffffffff168152602001908152602001600020819055506000600860003373ffffffffffffffffffffffffffffffffffffffff1673ffffffffffffffffffffffffffffffffffffffff16815260200190815260200160002054141561119557611194336113d0565b5b61119f33826120bf565b50565b6060600480546111b190612b09565b80601f01602080910402602001604051908101604052809291908181526020018280546111dd90612b09565b801561122a5780601f106111ff5761010080835404028352916020019161122a565b820191906000526020600020905b81548152906001019060200180831161120d57829003601f168201915b5050505050905090565b61123c611a83565b73ffffffffffffffffffffffffffffffffffffffff1661125a611084565b73ffffffffffffffffffffffffffffffffffffffff16146112b0576040517f08c379a00000000000000000000000000000000000000000000000000000000081526004016112a79061285a565b60405180910390fd5b6112ba8282611c6c565b5050565b600080600160006112cd611a83565b73ffffffffffffffffffffffffffffffffffffffff1673ffffffffffffffffffffffffffffffffffffffff16815260200190815260200160002060008573ffffffffffffffffffffffffffffffffffffffff1673ffffffffffffffffffffffffffffffffffffffff1681526020019081526020016000205490508281101561138a576040517f08c379a0000000000000000000000000000000000000000000000000000000008152600401611381906128da565b60405180910390fd5b6113a7611395611a83565b8585846113a29190612a4d565b611a8b565b600191505092915050565b60006113c66113bf611a83565b8484611e40565b6001905092915050565b6000806113dc836117fd565b91509150811561154c57600760016007805490506113fa9190612a4d565b81548110611431577f4e487b7100000000000000000000000000000000000000000000000000000000600052603260045260246000fd5b9060005260206000200160009054906101000a900473ffffffffffffffffffffffffffffffffffffffff1660078281548110611496577f4e487b7100000000000000000000000000000000000000000000000000000000600052603260045260246000fd5b9060005260206000200160006101000a81548173ffffffffffffffffffffffffffffffffffffffff021916908373ffffffffffffffffffffffffffffffffffffffff1602179055506007805480611516577f4e487b7100000000000000000000000000000000000000000000000000000000600052603160045260246000fd5b6001900381819060005260206000200160006101000a81549073ffffffffffffffffffffffffffffffffffffffff021916905590555b505050565b6000806000905060005b6007805490508110156116345761161e60086000600784815481106115a9577f4e487b7100000000000000000000000000000000000000000000000000000000600052603260045260246000fd5b9060005260206000200160009054906101000a900473ffffffffffffffffffffffffffffffffffffffff1673ffffffffffffffffffffffffffffffffffffffff1673ffffffffffffffffffffffffffffffffffffffff1681526020019081526020016000205483611c5690919063ffffffff16565b915060018161162d919061296c565b905061155b565b508091505090565b6000600960003373ffffffffffffffffffffffffffffffffffffffff1673ffffffffffffffffffffffffffffffffffffffff1681526020019081526020016000205490506000600960003373ffffffffffffffffffffffffffffffffffffffff1673ffffffffffffffffffffffffffffffffffffffff168152602001908152602001600020819055506116cf33826120bf565b50565b6000600654905090565b6000806116e7610e8e565b90506116f38382612213565b915050919050565b6000600160008473ffffffffffffffffffffffffffffffffffffffff1673ffffffffffffffffffffffffffffffffffffffff16815260200190815260200160002060008373ffffffffffffffffffffffffffffffffffffffff1673ffffffffffffffffffffffffffffffffffffffff16815260200190815260200160002054905092915050565b600061178d826117fd565b509050806117f9576007829080600181540180825580915050600190039060005260206000200160009091909190916101000a81548173ffffffffffffffffffffffffffffffffffffffff021916908373ffffffffffffffffffffffffffffffffffffffff1602179055505b5050565b60008060005b6007805490508110156118c9576007818154811061184a577f4e487b7100000000000000000000000000000000000000000000000000000000600052603260045260246000fd5b9060005260206000200160009054906101000a900473ffffffffffffffffffffffffffffffffffffffff1673ffffffffffffffffffffffffffffffffffffffff168473ffffffffffffffffffffffffffffffffffffffff1614156118b55760018192509250506118d2565b6001816118c2919061296c565b9050611803565b50600080915091505b915091565b6118df611a83565b73ffffffffffffffffffffffffffffffffffffffff166118fd611084565b73ffffffffffffffffffffffffffffffffffffffff1614611953576040517f08c379a000000000000000000000000000000000000000000000000000000000815260040161194a9061285a565b60405180910390fd5b600073ffffffffffffffffffffffffffffffffffffffff168173ffffffffffffffffffffffffffffffffffffffff1614156119c3576040517f08c379a00000000000000000000000000000000000000000000000000000000081526004016119ba9061275a565b60405180910390fd5b8073ffffffffffffffffffffffffffffffffffffffff16600560009054906101000a900473ffffffffffffffffffffffffffffffffffffffff1673ffffffffffffffffffffffffffffffffffffffff167f8be0079c531659141344cd1fd0a4f28419497f9722a3daafe3b4186f6b6457e060405160405180910390a380600560006101000a81548173ffffffffffffffffffffffffffffffffffffffff021916908373ffffffffffffffffffffffffffffffffffffffff16021790555050565b600033905090565b600073ffffffffffffffffffffffffffffffffffffffff168373ffffffffffffffffffffffffffffffffffffffff161415611afb576040517f08c379a0000000000000000000000000000000000000000000000000000000008152600401611af2906128ba565b60405180910390fd5b600073ffffffffffffffffffffffffffffffffffffffff168273ffffffffffffffffffffffffffffffffffffffff161415611b6b576040517f08c379a0000000000000000000000000000000000000000000000000000000008152600401611b629061277a565b60405180910390fd5b80600160008573ffffffffffffffffffffffffffffffffffffffff1673ffffffffffffffffffffffffffffffffffffffff16815260200190815260200160002060008473ffffffffffffffffffffffffffffffffffffffff1673ffffffffffffffffffffffffffffffffffffffff168152602001908152602001600020819055508173ffffffffffffffffffffffffffffffffffffffff168373ffffffffffffffffffffffffffffffffffffffff167f8c5be1e5ebec7d5bd14f71427d1e84f3dd0314c0f7b2291e5b200ac8c7c3b92583604051611c49919061291a565b60405180910390a3505050565b60008183611c64919061296c565b905092915050565b600073ffffffffffffffffffffffffffffffffffffffff168273ffffffffffffffffffffffffffffffffffffffff161415611cdc576040517f08c379a0000000000000000000000000000000000000000000000000000000008152600401611cd39061287a565b60405180910390fd5b611ce8826000836122ac565b60008060008473ffffffffffffffffffffffffffffffffffffffff1673ffffffffffffffffffffffffffffffffffffffff16815260200190815260200160002054905081811015611d6e576040517f08c379a0000000000000000000000000000000000000000000000000000000008152600401611d659061273a565b60405180910390fd5b8181611d7a9190612a4d565b6000808573ffffffffffffffffffffffffffffffffffffffff1673ffffffffffffffffffffffffffffffffffffffff168152602001908152602001600020819055508160026000828254611dce9190612a4d565b92505081905550600073ffffffffffffffffffffffffffffffffffffffff168373ffffffffffffffffffffffffffffffffffffffff167fddf252ad1be2c89b69c2b068fc378daa952ba7f163c4a11628f55a4df523b3ef84604051611e33919061291a565b60405180910390a3505050565b600073ffffffffffffffffffffffffffffffffffffffff168373ffffffffffffffffffffffffffffffffffffffff161415611eb0576040517f08c379a0000000000000000000000000000000000000000000000000000000008152600401611ea79061289a565b60405180910390fd5b600073ffffffffffffffffffffffffffffffffffffffff168273ffffffffffffffffffffffffffffffffffffffff161415611f20576040517f08c379a0000000000000000000000000000000000000000000000000000000008152600401611f179061271a565b60405180910390fd5b611f2b8383836122ac565b60008060008573ffffffffffffffffffffffffffffffffffffffff1673ffffffffffffffffffffffffffffffffffffffff16815260200190815260200160002054905081811015611fb1576040517f08c379a0000000000000000000000000000000000000000000000000000000008152600401611fa8906127ba565b60405180910390fd5b8181611fbd9190612a4d565b6000808673ffffffffffffffffffffffffffffffffffffffff1673ffffffffffffffffffffffffffffffffffffffff16815260200190815260200160002081905550816000808573ffffffffffffffffffffffffffffffffffffffff1673ffffffffffffffffffffffffffffffffffffffff168152602001908152602001600020600082825461204d919061296c565b925050819055508273ffffffffffffffffffffffffffffffffffffffff168473ffffffffffffffffffffffffffffffffffffffff167fddf252ad1be2c89b69c2b068fc378daa952ba7f163c4a11628f55a4df523b3ef846040516120b1919061291a565b60405180910390a350505050565b600073ffffffffffffffffffffffffffffffffffffffff168273ffffffffffffffffffffffffffffffffffffffff16141561212f576040517f08c379a0000000000000000000000000000000000000000000000000000000008152600401612126906128fa565b60405180910390fd5b61213b600083836122ac565b806002600082825461214d919061296c565b92505081905550806000808473ffffffffffffffffffffffffffffffffffffffff1673ffffffffffffffffffffffffffffffffffffffff16815260200190815260200160002060008282546121a2919061296c565b925050819055508173ffffffffffffffffffffffffffffffffffffffff16600073ffffffffffffffffffffffffffffffffffffffff167fddf252ad1be2c89b69c2b068fc378daa952ba7f163c4a11628f55a4df523b3ef83604051612207919061291a565b60405180910390a35050565b6000600682606461222491906129f3565b600860008673ffffffffffffffffffffffffffffffffffffffff1673ffffffffffffffffffffffffffffffffffffffff1681526020019081526020016000205461226e91906129c2565b61227891906129f3565b905092915050565b6000818361228e91906129c2565b905092915050565b600081836122a49190612a4d565b905092915050565b505050565b6000813590506122c08161300b565b92915050565b6000813590506122d581613022565b92915050565b6000602082840312156122ed57600080fd5b60006122fb848285016122b1565b91505092915050565b6000806040838503121561231757600080fd5b6000612325858286016122b1565b9250506020612336858286016122b1565b9150509250929050565b60008060006060848603121561235557600080fd5b6000612363868287016122b1565b9350506020612374868287016122b1565b9250506040612385868287016122c6565b9150509250925092565b600080604083850312156123a257600080fd5b60006123b0858286016122b1565b92505060206123c1858286016122c6565b9150509250929050565b6000602082840312156123dd57600080fd5b60006123eb848285016122c6565b91505092915050565b6123fd81612a81565b82525050565b61240c81612a93565b82525050565b600061241d82612950565b612427818561295b565b9350612437818560208601612ad6565b61244081612bc8565b840191505092915050565b600061245860238361295b565b915061246382612bd9565b604082019050919050565b600061247b60228361295b565b915061248682612c28565b604082019050919050565b600061249e60268361295b565b91506124a982612c77565b604082019050919050565b60006124c160228361295b565b91506124cc82612cc6565b604082019050919050565b60006124e460108361295b565b91506124ef82612d15565b602082019050919050565b600061250760268361295b565b915061251282612d3e565b604082019050919050565b600061252a60148361295b565b915061253582612d8d565b602082019050919050565b600061254d60108361295b565b915061255882612db6565b602082019050919050565b600061257060258361295b565b915061257b82612ddf565b604082019050919050565b600061259360288361295b565b915061259e82612e2e565b604082019050919050565b60006125b660208361295b565b91506125c182612e7d565b602082019050919050565b60006125d960218361295b565b91506125e482612ea6565b604082019050919050565b60006125fc60258361295b565b915061260782612ef5565b604082019050919050565b600061261f60248361295b565b915061262a82612f44565b604082019050919050565b600061264260258361295b565b915061264d82612f93565b604082019050919050565b6000612665601f8361295b565b915061267082612fe2565b602082019050919050565b61268481612abf565b82525050565b61269381612ac9565b82525050565b60006020820190506126ae60008301846123f4565b92915050565b60006020820190506126c96000830184612403565b92915050565b60006040820190506126e46000830185612403565b6126f1602083018461267b565b9392505050565b600060208201905081810360008301526127128184612412565b905092915050565b600060208201905081810360008301526127338161244b565b9050919050565b600060208201905081810360008301526127538161246e565b9050919050565b6000602082019050818103600083015261277381612491565b9050919050565b60006020820190508181036000830152612793816124b4565b9050919050565b600060208201905081810360008301526127b3816124d7565b9050919050565b600060208201905081810360008301526127d3816124fa565b9050919050565b600060208201905081810360008301526127f38161251d565b9050919050565b6000602082019050818103600083015261281381612540565b9050919050565b6000602082019050818103600083015261283381612563565b9050919050565b6000602082019050818103600083015261285381612586565b9050919050565b60006020820190508181036000830152612873816125a9565b9050919050565b60006020820190508181036000830152612893816125cc565b9050919050565b600060208201905081810360008301526128b3816125ef565b9050919050565b600060208201905081810360008301526128d381612612565b9050919050565b600060208201905081810360008301526128f381612635565b9050919050565b6000602082019050818103600083015261291381612658565b9050919050565b600060208201905061292f600083018461267b565b92915050565b600060208201905061294a600083018461268a565b92915050565b600081519050919050565b600082825260208201905092915050565b600061297782612abf565b915061298283612abf565b9250827fffffffffffffffffffffffffffffffffffffffffffffffffffffffffffffffff038211156129b7576129b6612b3b565b5b828201905092915050565b60006129cd82612abf565b91506129d883612abf565b9250826129e8576129e7612b6a565b5b828204905092915050565b60006129fe82612abf565b9150612a0983612abf565b9250817fffffffffffffffffffffffffffffffffffffffffffffffffffffffffffffffff0483118215151615612a4257612a41612b3b565b5b828202905092915050565b6000612a5882612abf565b9150612a6383612abf565b925082821015612a7657612a75612b3b565b5b828203905092915050565b6000612a8c82612a9f565b9050919050565b60008115159050919050565b600073ffffffffffffffffffffffffffffffffffffffff82169050919050565b6000819050919050565b600060ff82169050919050565b60005b83811015612af4578082015181840152602081019050612ad9565b83811115612b03576000848401525b50505050565b60006002820490506001821680612b2157607f821691505b60208210811415612b3557612b34612b99565b5b50919050565b7f4e487b7100000000000000000000000000000000000000000000000000000000600052601160045260246000fd5b7f4e487b7100000000000000000000000000000000000000000000000000000000600052601260045260246000fd5b7f4e487b7100000000000000000000000000000000000000000000000000000000600052602260045260246000fd5b6000601f19601f8301169050919050565b7f45524332303a207472616e7366657220746f20746865207a65726f206164647260008201527f6573730000000000000000000000000000000000000000000000000000000000602082015250565b7f45524332303a206275726e20616d6f756e7420657863656564732062616c616e60008201527f6365000000000000000000000000000000000000000000000000000000000000602082015250565b7f4f776e61626c653a206e6577206f776e657220697320746865207a65726f206160008201527f6464726573730000000000000000000000000000000000000000000000000000602082015250565b7f45524332303a20617070726f766520746f20746865207a65726f20616464726560008201527f7373000000000000000000000000000000000000000000000000000000000000602082015250565b7f6c696d6974526577617264206973203000000000000000000000000000000000600082015250565b7f45524332303a207472616e7366657220616d6f756e742065786365656473206260008201527f616c616e63650000000000000000000000000000000000000000000000000000602082015250565b7f726577617264206c696d69742072656163686564000000000000000000000000600082015250565b7f746f74616c5374616b6573206973203000000000000000000000000000000000600082015250565b7f6d6178537570706c79206d757374206265206772656174657220746f74616c5460008201527f6f6b656e73000000000000000000000000000000000000000000000000000000602082015250565b7f45524332303a207472616e7366657220616d6f756e742065786365656473206160008201527f6c6c6f77616e6365000000000000000000000000000000000000000000000000602082015250565b7f4f776e61626c653a2063616c6c6572206973206e6f7420746865206f776e6572600082015250565b7f45524332303a206275726e2066726f6d20746865207a65726f2061646472657360008201527f7300000000000000000000000000000000000000000000000000000000000000602082015250565b7f45524332303a207472616e736665722066726f6d20746865207a65726f20616460008201527f6472657373000000000000000000000000000000000000000000000000000000602082015250565b7f45524332303a20617070726f76652066726f6d20746865207a65726f2061646460008201527f7265737300000000000000000000000000000000000000000000000000000000602082015250565b7f45524332303a2064656372656173656420616c6c6f77616e63652062656c6f7760008201527f207a65726f000000000000000000000000000000000000000000000000000000602082015250565b7f45524332303a206d696e7420746f20746865207a65726f206164647265737300600082015250565b61301481612a81565b811461301f57600080fd5b50565b61302b81612abf565b811461303657600080fd5b5056fea2646970667358221220462f402e008cea0cee179ac0ed7376389dafc507656c8cdaf6f09235df3ec49664736f6c63430008010033",
  "immutableReferences": {},
  "source": "// SPDX-License-Identifier: MIT\npragma solidity >=0.6.0 <0.8.2;\n\nimport \"@openzeppelin/contracts/utils/math/SafeMath.sol\";\nimport \"./ScamCoin.sol\";\n\ncontract StakingToken is ScamCoin {\n    using SafeMath for uint256;\n\n    constructor() ScamCoin() {}\n\n    /**\n     * @dev We usually require to know who are all the stakeholders.\n     */\n    address[] internal stakeholders;\n\n    /**\n     * @dev The stakes for each stakeholder.\n     */\n    mapping(address => uint256) internal stakes;\n\n    /**\n     * @dev The accumulated rewards for each stakeholder.\n     */\n    mapping(address => uint256) internal rewards;\n\n    // ---------- STAKES ----------\n\n    /**\n     * @dev A method for a stakeholder to create a stake.\n     * @param _stake The size of the stake to be created.\n     */\n    function createStake(uint256 _stake)\n        public\n    {\n        _burn(msg.sender, _stake);\n        if(stakes[msg.sender] == 0) addStakeholder(msg.sender);\n        stakes[msg.sender] = stakes[msg.sender].add(_stake);\n    }\n\n    /**\n     * @dev A method for a stakeholder to remove a stake.\n     * @param _stake The size of the stake to be removed.\n     */\n    function removeStake(uint256 _stake)\n        public\n    {\n        stakes[msg.sender] = stakes[msg.sender].sub(_stake);\n        if(stakes[msg.sender] == 0) removeStakeholder(msg.sender);\n        _mint(msg.sender, _stake);\n    }\n\n    /**\n     * @dev A method to retrieve the stake for a stakeholder.\n     * @param _stakeholder The stakeholder to retrieve the stake for.\n     * @return uint256 The amount of wei staked.\n     */\n    function stakeOf(address _stakeholder)\n        public\n        view\n        returns(uint256)\n    {\n        return stakes[_stakeholder];\n    }\n\n    /**\n     * @dev A method to the aggregated stakes from all stakeholders.\n     * @return uint256 The aggregated stakes from all stakeholders.\n     */\n    function totalStakes()\n        public\n        view\n        returns(uint256)\n    {\n        uint256 _totalStakes = 0;\n        for (uint256 s = 0; s < stakeholders.length; s += 1){\n            _totalStakes = _totalStakes.add(stakes[stakeholders[s]]);\n        }\n        return _totalStakes;\n    }\n\n    // ---------- STAKEHOLDERS ----------\n\n    /**\n     * @dev A method to check if an address is a stakeholder.\n     * @param _address The address to verify.\n     * @return bool, uint256 Whether the address is a stakeholder, \n     * and if so its position in the stakeholders array.\n     */\n    function isStakeholder(address _address)\n        public\n        view\n        returns(bool, uint256)\n    {\n        for (uint256 s = 0; s < stakeholders.length; s += 1){\n            if (_address == stakeholders[s]) return (true, s);\n        }\n        return (false, 0);\n    }\n\n    /**\n     * @dev A method to add a stakeholder.\n     * @param _stakeholder The stakeholder to add.\n     */\n    function addStakeholder(address _stakeholder)\n        public\n    {\n        (bool _isStakeholder, ) = isStakeholder(_stakeholder);\n        if(!_isStakeholder) stakeholders.push(_stakeholder);\n    }\n\n    /**\n     * @dev A method to remove a stakeholder.\n     * @param _stakeholder The stakeholder to remove.\n     */\n    function removeStakeholder(address _stakeholder)\n        public\n    {\n        (bool _isStakeholder, uint256 s) = isStakeholder(_stakeholder);\n        if(_isStakeholder){\n            stakeholders[s] = stakeholders[stakeholders.length - 1];\n            stakeholders.pop();\n        } \n    }\n\n    // ---------- REWARDS ----------\n    \n    /**\n     * @dev A method to allow a stakeholder to check his rewards.\n     * @param _stakeholder The stakeholder to check rewards for.\n     */\n    function rewardOf(address _stakeholder) \n        public\n        view\n        returns(uint256)\n    {\n        return rewards[_stakeholder];\n    }\n\n    /**\n     * @dev A method to the aggregated rewards from all stakeholders.\n     * @return uint256 The aggregated rewards from all stakeholders.\n     */\n    function totalRewards()\n        public\n        view\n        returns(uint256)\n    {\n        uint256 _totalRewards = 0;\n        for (uint256 s = 0; s < stakeholders.length; s += 1){\n            _totalRewards = _totalRewards.add(rewards[stakeholders[s]]);\n        }\n        return _totalRewards;\n    }\n\n    /** \n     * @dev A simple method that calculates the rewards for each stakeholder.\n     * @param _stakeholder The stakeholder to calculate rewards for.\n     */\n    function calculateReward(address _stakeholder)\n        public\n        view\n        returns(uint256)\n    {\n        uint256 _koefReward = koefReward();\n        return _calculateReward(_stakeholder, _koefReward);\n    }\n\n    /** \n     * @dev A simple method that calculates the rewards for each stakeholder.\n     * @param _stakeholder The stakeholder to calculate rewards for.\n     */\n    function _calculateReward(address _stakeholder, uint256 _koefReward)\n        private\n        view\n        returns(uint256)\n    {\n        return (stakes[_stakeholder] / (100 * _koefReward)) * 6;\n    }\n    \n    function koefReward() \n        public\n        view\n        returns(uint256)\n    {\n        uint256 _totalStakes = totalStakes();\n        require(_totalStakes > 0, 'totalStakes is 0');\n\n        uint256 _totalTokens = totalSupply();\n        _totalTokens = _totalTokens.add(_totalStakes);\n        _totalTokens = _totalTokens.add(totalRewards());\n\n        uint256 _koef = 1;\n\n        require(maxSupply() > _totalTokens, 'maxSupply must be greater totalTokens');\n\n        uint256 _limitReward = maxSupply() - _totalTokens;\n        require(_limitReward > 0, 'limitReward is 0');\n\n        uint256 _targetReward = (_totalStakes / (100 * _koef)) * 6;\n\n        if (_targetReward > _limitReward) {\n            while(_targetReward > 0) {\n                _koef = _koef * 2;\n                _targetReward = _targetReward.div(2);\n\n                if (_limitReward > _targetReward) {\n                    break;\n                }\n            }\n            require(_targetReward > 0, 'reward limit reached');\n        }\n\n        return _koef;\n    }\n\n    /**\n     * @dev A method to distribute rewards to all stakeholders.\n     */\n    function distributeRewards() \n        public\n        onlyOwner\n    {\n        uint256 _koefReward = koefReward();\n\n        for (uint256 s = 0; s < stakeholders.length; s += 1){\n            address stakeholder = stakeholders[s];\n            uint256 reward = _calculateReward(stakeholder, _koefReward);\n            rewards[stakeholder] = rewards[stakeholder].add(reward);\n        }\n    }\n\n    /**\n     * @dev A method to allow a stakeholder to withdraw his rewards.\n     */\n    function withdrawReward() \n        public\n    {\n        uint256 reward = rewards[msg.sender];\n        rewards[msg.sender] = 0;\n        _mint(msg.sender, reward);\n    }\n\n    /**\n     * @dev for testing\n     */\n    // function kill() public onlyOwner {\n\t// \taddress payable wallet = payable(owner());\n\t// \tselfdestruct(wallet);\n\t// }\n}",
  "sourcePath": "C:/Main/workspace/projects/scamCoin/contracts/StakingToken.sol",
  "compiler": {
    "name": "solc",
    "version": "0.8.1+commit.df193b15.Emscripten.clang"
  },
  "schemaVersion": "3.4.1",
  "updatedAt": "2021-06-28T14:55:25.843Z",
  "devdoc": {
    "kind": "dev",
    "methods": {
      "addStakeholder(address)": {
        "details": "A method to add a stakeholder.",
        "params": {
          "_stakeholder": "The stakeholder to add."
        }
      },
      "allowance(address,address)": {
        "details": "See {IERC20-allowance}."
      },
      "approve(address,uint256)": {
        "details": "See {IERC20-approve}. Requirements: - `spender` cannot be the zero address."
      },
      "balanceOf(address)": {
        "details": "See {IERC20-balanceOf}."
      },
      "calculateReward(address)": {
        "details": "A simple method that calculates the rewards for each stakeholder.",
        "params": {
          "_stakeholder": "The stakeholder to calculate rewards for."
        }
      },
      "createStake(uint256)": {
        "details": "A method for a stakeholder to create a stake.",
        "params": {
          "_stake": "The size of the stake to be created."
        }
      },
      "decimals()": {
        "details": "Returns the number of decimals used to get its user representation. For example, if `decimals` equals `2`, a balance of `505` tokens should be displayed to a user as `5,05` (`505 / 10 ** 2`). Tokens usually opt for a value of 18, imitating the relationship between Ether and Wei. This is the value {ERC20} uses, unless this function is overridden; NOTE: This information is only used for _display_ purposes: it in no way affects any of the arithmetic of the contract, including {IERC20-balanceOf} and {IERC20-transfer}."
      },
      "decreaseAllowance(address,uint256)": {
        "details": "Atomically decreases the allowance granted to `spender` by the caller. This is an alternative to {approve} that can be used as a mitigation for problems described in {IERC20-approve}. Emits an {Approval} event indicating the updated allowance. Requirements: - `spender` cannot be the zero address. - `spender` must have allowance for the caller of at least `subtractedValue`."
      },
      "distributeRewards()": {
        "details": "A method to distribute rewards to all stakeholders."
      },
      "increaseAllowance(address,uint256)": {
        "details": "Atomically increases the allowance granted to `spender` by the caller. This is an alternative to {approve} that can be used as a mitigation for problems described in {IERC20-approve}. Emits an {Approval} event indicating the updated allowance. Requirements: - `spender` cannot be the zero address."
      },
      "isStakeholder(address)": {
        "details": "A method to check if an address is a stakeholder.",
        "params": {
          "_address": "The address to verify."
        },
        "returns": {
          "_0": "bool, uint256 Whether the address is a stakeholder,  and if so its position in the stakeholders array."
        }
      },
      "mint(address,uint256)": {
        "details": "Expands the total"
      },
      "name()": {
        "details": "Returns the name of the token."
      },
      "owner()": {
        "details": "Returns the address of the current owner."
      },
      "removeStake(uint256)": {
        "details": "A method for a stakeholder to remove a stake.",
        "params": {
          "_stake": "The size of the stake to be removed."
        }
      },
      "removeStakeholder(address)": {
        "details": "A method to remove a stakeholder.",
        "params": {
          "_stakeholder": "The stakeholder to remove."
        }
      },
      "renounceOwnership()": {
        "details": "Leaves the contract without owner. It will not be possible to call `onlyOwner` functions anymore. Can only be called by the current owner. NOTE: Renouncing ownership will leave the contract without an owner, thereby removing any functionality that is only available to the owner."
      },
      "rewardOf(address)": {
        "details": "A method to allow a stakeholder to check his rewards.",
        "params": {
          "_stakeholder": "The stakeholder to check rewards for."
        }
      },
      "stakeOf(address)": {
        "details": "A method to retrieve the stake for a stakeholder.",
        "params": {
          "_stakeholder": "The stakeholder to retrieve the stake for."
        },
        "returns": {
          "_0": "uint256 The amount of wei staked."
        }
      },
      "symbol()": {
        "details": "Returns the symbol of the token, usually a shorter version of the name."
      },
      "totalRewards()": {
        "details": "A method to the aggregated rewards from all stakeholders.",
        "returns": {
          "_0": "uint256 The aggregated rewards from all stakeholders."
        }
      },
      "totalStakes()": {
        "details": "A method to the aggregated stakes from all stakeholders.",
        "returns": {
          "_0": "uint256 The aggregated stakes from all stakeholders."
        }
      },
      "totalSupply()": {
        "details": "See {IERC20-totalSupply}."
      },
      "transfer(address,uint256)": {
        "details": "See {IERC20-transfer}. Requirements: - `recipient` cannot be the zero address. - the caller must have a balance of at least `amount`."
      },
      "transferFrom(address,address,uint256)": {
        "details": "See {IERC20-transferFrom}. Emits an {Approval} event indicating the updated allowance. This is not required by the EIP. See the note at the beginning of {ERC20}. Requirements: - `sender` and `recipient` cannot be the zero address. - `sender` must have a balance of at least `amount`. - the caller must have allowance for ``sender``'s tokens of at least `amount`."
      },
      "transferOwnership(address)": {
        "details": "Transfers ownership of the contract to a new account (`newOwner`). Can only be called by the current owner."
      },
      "withdrawReward()": {
        "details": "A method to allow a stakeholder to withdraw his rewards."
      }
    },
    "stateVariables": {
      "rewards": {
        "details": "The accumulated rewards for each stakeholder."
      },
      "stakeholders": {
        "details": "We usually require to know who are all the stakeholders."
      },
      "stakes": {
        "details": "The stakes for each stakeholder."
      }
    },
    "version": 1
  },
  "userdoc": {
    "kind": "user",
    "methods": {},
    "version": 1
  }
}